:1000000000000420750300005D0300002D4F000078
:1000100061030000630300006503000000000000AE
:100020000000000000000000000000006703000066
:1000300069030000000000006B0300006D03000076
:10004000F51000006F03000095110000051100007D
:10005000291100006F03000091070000FD17000048
:10006000C11E0000D91E0000F11E00004117000053
:100070006F030000791500006F0300006F0300009C
:10008000153800006D3E0000E513000071110000FE
:10009000991C0000A51C0000B11C0000BD1C000044
:1000A000C91C0000D51C0000091F0000211F000012
:1000B000E9120000490D00000000000000000000EF
:1000C0006F03000001130000191300004D11000020
:1000D00055170000ED0A00006F030000C93300004F
:1000E0006F030000FD140000998E00000000000066
:1000F000000000003113000000000000F51B0000AC
:1001000000000000000000000000000000000000EF
:1001100000000000000000000000000000000000DF
:1001200000000000000000000000000000000000CF
:1001300000000000000000000000000000000000BF
:1001400000000000000000000000000000000000AF
:10015000000000000000000000000000000000009F
:10016000000000000000000000000000000000008F
:10017000000000000000000000000000000000007F
:10018000000000000000000000000000000000006F
:10019000000000000000000000000000000000005F
:1001A000000000000000000000000000000000004F
:1001B000000000000000000000000000000000003F
:1001C000000000000000000000000000000000002F
:1001D000000000000000000000000000000000001F
:1001E000000000000000000000000000000000000F
:1001F00000000000000000000000000000000000FF
:10020000354936480A1A02D0072291438D463449AF
:1002100034480A1A06D00722914381F30988022242
:1002200082F3148830483149314A00F044F83148AB
:100230003149324A00F03FF831483249324A00F041
:100240003AF832483249334A00F035F832483349F7
:10025000334A00F030F833483349344A00F02BF881
:1002600033483449344A00F026F8344834490022EF
:1002700000F02CF833483449002200F027F83348C6
:100280003349091A082902DB002202604160314A21
:1002900090471F481F49884205D00268043003B4C4
:1002A000904703BCF7E700208646EC46002000217B
:1002B000294A9047FEE7884207D0521A05D00378B2
:1002C00001300B700131013AF9D17047884202D0F8
:1002D00002700130FAE770470000042000E00320BC
:1002E0000000042000000420D4AD000030000020F5
:1002F00048000020D0030000D00300003896000022
:10030000D4AD00003000002030000020C096000076
:10031000C0960000C0960000C0960000C096000085
:10032000C0960000C0960000C0960000D4AD00004A
:10033000ECAD0000480000204800002048000020EC
:10034000182D0020182D0020182D0020182D002019
:10035000184D00209D0300003D380000FEE7FEE739
:10036000FEE7FEE7FEE7FEE7FEE7FEE7FEE7FEE765
:1003700000F002B8FFF7FCBF0F484FF007018843B9
:1003800085460E4880470E48016841F470010160BF
:10039000BFF34F8FBFF36F8FFFF732BF09480A4992
:1003A0000A4A884207D0521A05D0037801300B70F0
:1003B0000131013AF9D1704700000420357A00007C
:1003C00088ED00E090960000000000203000002042
:1003D00010B487B001900091019B009A53E8004F40
:1003E00004EA020043E8000191F0000FF6D1059401
:1003F00004900391059B184607B05DF8044B7047C5
:1004000082B001904FF08042019BC2F8083300BFD8
:1004100002B0704784B00346ADF80630BDF8063030
:1004200003F1804300221A60BDF8063003F18043D7
:100430001B680393039B00BF04B0704782B0034660
:10044000ADF80630BDF8063003F180431B68002B81
:1004500014BF01230023DBB2184602B0704700002E
:1004600008B54FF48070FFF7E9FF0346002B14D066
:100470004FF48070FFF7CEFF0120FFF7C1FF114B53
:100480005B7983F00103DBB2002B06D00D4B012218
:100490005A710C4B1B68002098474FF48270FFF78D
:1004A000CDFF0346002B0AD04FF48270FFF7B2FF56
:1004B0000220FFF7A5FF034B1B680120984700BFF0
:1004C00008BD00BF9800002000B583B00346ADF81A
:1004D0000630BDF80630184600F026F803461B68C3
:1004E000012B0CBF01230023DBB2184603B05DF8DB
:1004F00004FB00B585B00346ADF80630BDF8063004
:10050000184600F011F803461A4600231360BDF8A0
:100510000630184600F008F803461B680393039B57
:1005200000BF05B05DF804FB82B00346ADF80630AD
:10053000BDF8063003F1804303F5C043184602B00E
:100540007047000082B00190034BD3F80423019B55
:100550001340184602B070470060004082B001901E
:10056000054A019B03F5A27352F823301B0A03F0DE
:100570003F03184602B070470060004082B001900F
:10058000064A019B03F5A27352F823301B0C03F0BB
:100590000303DBB2184602B0704700BF00600040A2
:1005A00000B583B00190019B1B682F2B04D90B4928
:1005B00040F2CD1004F020FD019B1B681F2B02D8D8
:1005C0004FF0A04306E0019B1B6803F01F02019B54
:1005D0001A60034B184603B05DF804FB5497000003
:1005E0000003005000B585B001900B468DF8033034
:1005F00001AB1846FFF7D4FF0390019A039B02F565
:10060000E07253F82230019A23F44031039B02F543
:10061000E07243F82210019A039B02F5E07253F84E
:1006200022309DF8032012041146019A1943039BBE
:1006300002F5E07243F8221000BF05B05DF804FB3C
:1006400000B585B0019001AB1846FFF7A9FF0390F4
:10065000019A039B02F5E07253F822301B0C03F061
:100660000303DBB2184605B05DF804FB82B00190CD
:10067000019BD3F81035184602B0704700B589B019
:10068000039002910192174A05AB92E8030083E8B8
:100690000300039A029B1344022B04D9124940F22F
:1006A000FD2004F0A9FC039B079311E0079B9B002E
:1006B00008AA134453F80C3C1846FFF7D7FF02462C
:1006C000019B1A60019B04330193079B013307933D
:1006D000039A029B1344079A9A42E7D300BF09B0DA
:1006E0005DF804FB849700005497000084B00190EB
:1006F0000091009B0393019BDB080293019B03F095
:10070000070301930122019B02FA03F30399029A62
:100710000A4412781340184604B0704784B0019020
:100720000091009B0393019BDB080293019B03F064
:1007300007030193039A029B13441B785AB20121C9
:10074000019B01FA03F35BB2134359B2039A029B74
:100750001344CAB21A7000BF04B0704782B001904F
:10076000044A019B1344303393F90030184602B019
:10077000704700BFA000002082B00190034A019B97
:1007800052F82330184602B0704700BFA000002086
:1007900000B599B00023179306AB00221A605A6087
:1007A0004FF48073ADF85630012314930023169351
:1007B00021E0BDF856301846FFF786FE0346002BB1
:1007C0000ED01498FFF7BEFE0346002B08D0BDF8EC
:1007D00056301846FFF78DFE179A149B1343179354
:1007E000149B5B001493BDF856300433ADF85630BB
:1007F000169B01331693169B072BDAD94FF4BE7064
:10080000FFF762FE0346002B0DD04FF4BE70FFF7DA
:1008100070FE179B43F00043179306AB1A46022164
:100820000020FFF72BFF179BDBB2002B29D0012301
:1008300014930023169321E0149A179B1340002B66
:1008400016D01698FFF78AFE11901698FFF796FEBD
:1008500003468DF843301698FFF78EFF0F900F9BDD
:10086000002B05D09DF843200F9B11461198984707
:10087000149B5B001493169B01331693169B072B56
:10088000DAD9179B002B80F2F08000238DF84B30D3
:1008900004AB00221A605A60002313930AE0139BF2
:1008A0009B0018AA13444FF0FF3243F8582C139BB7
:1008B00001331393139B012BF1D900238DF84B3097
:1008C0000023169378E06B4A169B1344603393F928
:1008D00000308DF83B309DF83B3023F0C0030D9382
:1008E000644A169B1344603393F90030B3F1FF3F21
:1008F0005FD002AB19460D98FFF7F8FE0346002BB8
:1009000057D09DF83B309B098DF833300D98FFF799
:1009100025FF03461846FFF72FFF0B900B9B002B7C
:1009200003D19DF83330032B43D19DF83330032B93
:1009300004D104AB19460D98FFF7F0FE0D98FFF7B0
:100940007FFE03468DF82B3006AB19460D98FFF756
:10095000CDFE0990099B002B03D09DF82B30022B74
:1009600006D0099B002B24D19DF82B30032B20D1DE
:100970009DF83330032B13D19DF82B30022B01D17E
:10098000032300E002238DF823309DF8233019461D
:100990000D98FFF727FE9DF84B3001338DF84B3053
:1009A0000B9B002B05D09DF833200B9B11460D9817
:1009B0009847169B01331693169B032B83D99DF8FA
:1009C0004B30002B4CD001238DF84A306B461A4631
:1009D00002210020FFF752FE0023139314E0139B23
:1009E0009B0018AA134453F8602C139B9B0018A972
:1009F0000B4453F8483C9A4203D000238DF84A3008
:100A000005E0139B01331393139B012BE7D99DF84A
:100A10004A30002B03D000238DF84B3020E0002318
:100A200013931AE0139B9B0018AA134453F8602CED
:100A3000139B9B0018A90B4443F8482C139B9B0065
:100A400018AA134453F8502C139B9B0018A90B446D
:100A500043F8582C139B01331393139B012BE1D9BB
:100A60009DF84B30002B7FF428AF00BF19B05DF824
:100A700004FB00BFA000002084B001900B46ADF83D
:100A80000230BDF80230019A134400221A60BDF80A
:100A90000230019A13441B680393039B00BF04B008
:100AA000704782B001900B46ADF80230BDF80230BD
:100AB000019A13441B68002B14BF01230023DBB2EF
:100AC000184602B0704782B001900091019B009AD5
:100AD000C3F8082300BF02B0704782B00190019BA9
:100AE0000022C3F8002500BF02B0704700B583B0F4
:100AF0004FF48A717648FFF7D4FF0346002B1CD0D1
:100B00004FF48A717248FFF7B7FF724A537943F086
:100B1000080353716F4B5B7903F00203DBB2002BC8
:100B20000BD06C4B5B7903F01003DBB2002B04D0CD
:100B3000684A537943F0200353714FF4827164483B
:100B4000FFF7AFFF0346002B1CD04FF482716048C3
:100B5000FFF792FF5F4A537943F0040353715D4BF3
:100B60005B7903F00103DBB2002B0BD0594B5B79AF
:100B700003F01003DBB2002B04D0564A537943F044
:100B8000200353714FF484715148FFF78AFF0346E5
:100B9000002B19D04FF484714D48FFF76DFF0421ED
:100BA0004B48FFF790FF4A48FFF797FF494B1B68F8
:100BB000002149489847474B1B6800214748984700
:100BC000444B01221A717EE0424B5B7903F0020331
:100BD000DBB2002B14D03F4B5B7903F00103DBB297
:100BE000002B0DD03B4B5B7903F00803DBB2002BED
:100BF00006D0384B5B7903F00403DBB2002B21D124
:100C0000344B5B79C3F30003DBB283F00103DBB247
:100C1000002B06D02F4B5B7903F00803DBB2002BCF
:100C200010D12C4B5B79C3F34003DBB283F001039B
:100C3000DBB2002B47D0274B5B7903F00403DBB218
:100C4000002B40D0234A53796FF3C3035371214AD9
:100C500053796FF3820353711E4B5B7903F02003CA
:100C6000DBB2002B0FD01B4A53796FF3451353713E
:100C7000184A537943F010035371164B1B68012136
:100C8000002098471FE0134A6B46103292E8030099
:100C900083E803000F4B0F4A1033083292E8030039
:100CA00083E803000B4B00229A600A4B0022DA60B3
:100CB000084A537943F010035371064B1B686A4688
:100CC00001211046984700BF03B05DF804FB00BF48
:100CD000005002400C0100201C01002014010020E3
:100CE00082B00346ADF80630BDF8063003F180430C
:100CF00003F5E8331B68002B14BF01230023DBB28C
:100D0000184602B0704784B00346ADF80630BDF80F
:100D1000063003F1804303F5E83300221A60BDF882
:100D2000063003F1804303F5E8331B680393039B0C
:100D300000BF04B070470000024B0022C3F800253A
:100D400000BF704700D0014000B58FB04FF48070F5
:100D5000FFF7C6FF0346002B68D04FF48070FFF703
:100D6000D2FF6C4B9B7C8DF837306A4B9B7C03F039
:100D70000103002B0CBF01230023DBB28DF83630BA
:100D80009DF83630634A9B0013445B68002B04D106
:100D9000604B5B7CDBB2022B2BD100238DF8303013
:100DA0005C4B0022DA745B4B5B7CDBB2022B05D11F
:100DB00000230B93574B01225A7411E09DF83730F2
:100DC000544A9B0013445B680B939DF83730514A9B
:100DD0009B00134400225A604E4A9DF836309374AB
:100DE00001238DF828304B4B1B680AAA1046984700
:100DF00013E0484BDB7C002B0FD100238DF81C3017
:100E00000023089301238DF82430424B0122DA7429
:100E1000404B1B6807AA104698473E4B5B7CDBB2F1
:100E2000022B5DD13B4B01225A7459E04FF4827082
:100E3000FFF756FF0346002B52D04FF48270FFF7A6
:100E400062FFFFF779FF334B00225A7400238DF8BD
:100E5000183000238DF810302E4B9B7C2D4A9B00C0
:100E600013445B68002B12D02A4B9B7C294A9B00C1
:100E700013445B680593274B9B7C264A9B001344D5
:100E800000225A60234B1B6804AA10469847214B46
:100E90009B7C03F00103002B0CBF01230023DBB27A
:100EA0008DF835309DF835301A4A9B0013445B6845
:100EB000002B12D09DF83530164A9B0013445B6816
:100EC00005939DF83530134A9B00134400225A6065
:100ED000104B1B6804AA104698470E4B00229A74C8
:100EE0000C4B1B7DDBB2002B0FD001238DF804309F
:100EF0000023029300238DF80C30064B00221A7554
:100F0000044B1B6801AA1046984700BF0FB05DF85C
:100F100004FB00BF2401002084B00346ADF8063076
:100F2000BDF8063003F1804300221A60BDF8063098
:100F300003F180431B680393039B00BF04B0704719
:100F400082B00346ADF80630BDF8063003F18043A9
:100F50001B68002B14BF01230023DBB2184602B02C
:100F6000704700B585B00346ADF80630BDF80630D1
:100F70001846FFF7E5FF03468DF80F309DF80F3058
:100F8000002B04D0BDF806301846FFF7C5FF9DF8CA
:100F90000F30184605B05DF804FB4FF08043D3F8DE
:100FA000043318467047000000B583B0FFF7F5FF23
:100FB0000190019B03F00403002B12D04FF48470C6
:100FC000FFF7CFFF0346002B0BD0464B1B68002BCF
:100FD00004D145494FF48B7004F00EF8414B1B6867
:100FE0009847019B03F02003002B13D04FF48A7025
:100FF000FFF7B7FF0346002B0CD03C4B1B68002BC0
:1010000004D1394940F21F1003F0F6FF374B1B683B
:1010100000209847019B03F04003002B13D04FF4AE
:101020008C70FFF79EFF0346002B0CD02F4B1B68E4
:10103000002B04D12C494FF4937003F0DDFF2B4BB0
:101040001B6801209847019B03F08003002B13D0FD
:101050004FF48E70FFF785FF0346002B0CD0244B16
:101060001B68002B04D1204940F22F1003F0C4FF6D
:101070001F4B1B6800209847019B03F48073002BD3
:1010800013D04FF49070FFF76CFF0346002B0CD089
:10109000174B1B68002B04D113494FF49B7003F0CE
:1010A000ABFF134B1B6801209847019B03F40073AF
:1010B000002B13D04FF49270FFF753FF0346002B21
:1010C0000CD00B4B1B68002B04D1074940F23D109C
:1010D00003F092FF064B1B680220984700BF03B045
:1010E0005DF804FB3C010020449800004001002012
:1010F0004401002008B5FFF757FFFFF7B1F900BF23
:1011000008BD000008B5064B1B68002B03D105493C
:10111000452003F071FF024B1B68984700BF08BDD4
:10112000480100209C98000008B5064B1B68002B66
:1011300003D10549482003F05FFF024B1B68984725
:1011400000BF08BD500100209C98000008B5064B68
:101150001B68002B03D105494B2003F04DFF024BC8
:101160001B68984700BF08BD580100209C980000EC
:1011700008B5064B1B68002B03D105494E2003F030
:101180003BFF024B1B68984700BF08BD6001002071
:101190009C98000008B5064B1B68002B03D105493D
:1011A000512003F029FF024B1B68984700BF08BD80
:1011B000680100209C98000084B001900B46ADF8B7
:1011C0000230BDF80230019A134400221A60BDF8C3
:1011D0000230019A13441B680393039B00BF04B0C1
:1011E000704782B001900B46ADF80230BDF8023076
:1011F000019A13441B68002B14BF01230023DBB2A8
:10120000184602B0704700B583B0019000914FF4CA
:1012100088710198FFF7E5FF0346002B12D04FF4C9
:1012200088710198FFF7C8FF009B5B7903F0040306
:10123000002B07D0009B1B68002B03D0009B1B6872
:10124000012098474FF48A710198FFF7CAFF0346BF
:10125000002B12D04FF48A710198FFF7ADFF009B6D
:101260005B7903F00803002B07D0009B1B68002B61
:1012700003D0009B1B68022098474FF48E710198A1
:10128000FFF7AFFF0346002B12D04FF48E71019889
:10129000FFF792FF009B5B7903F01003002B07D14F
:1012A000009B1B68002B03D0009B1B680020984705
:1012B0004FF482710198FFF794FF0346002B0FD083
:1012C0004FF482710198FFF777FF009B01221A719A
:1012D000009B1B68002B03D0009B1B6803209847D2
:1012E00000BF03B05DF804FB08B503490348FFF7EE
:1012F0008AFF00BF08BD00BF7001002000C0014090
:1013000008B503490348FFF77EFF00BF08BD00BFD3
:10131000780100200010024008B503490348FFF798
:1013200072FF00BF08BD00BF800100200020024006
:1013300008B503490348FFF766FF00BF08BD00BFBB
:101340008801002000D0024082B003468DF80730AB
:10135000044BD3F804239DF807301340184602B01D
:10136000704700BF0020014084B00346ADF806304E
:10137000BDF8063003F1804303F5903300221A6074
:10138000BDF8063003F1804303F590331B680393E7
:10139000039B00BF04B0704782B00346ADF806302F
:1013A000BDF8063003F1804303F590331B681846FF
:1013B00002B07047024BD3F80C351846704700BF97
:1013C00000200140024BD3F818351846704700BF83
:1013D00000200140024BD3F848351846704700BF43
:1013E0000020014000B583B04FF48070FFF7D4FFB8
:1013F0000346002B19D00120FFF7A6FF0346002B60
:1014000013D04FF48070FFF7AFFF4FF48073ADF847
:101410000030FFF7CFFF03465BB28DF80230264B5A
:101420001B686A4692E8030098474FF48270FFF702
:10143000B3FF0346002B1FD00220FFF785FF0346B2
:10144000002B19D04FF48270FFF78EFF4FF4827398
:10145000ADF80030FFF7B6FF03461BB2ADF802301F
:10146000FFF7B8FF03469BB2ADF80430124B1B6880
:101470006A4692E8030098474FF48470FFF78CFFA8
:101480000346002B13D00420FFF75EFF0346002B1A
:101490000DD04FF48470FFF767FF4FF48473ADF8FD
:1014A0000030054B1B686A4692E80300984700BF6E
:1014B00003B05DF804FB00BF9001002082B00190F2
:1014C0000B46ADF80230BDF80230019A13440022F9
:1014D0001A6000BF02B0704782B001900B46ADF8B1
:1014E0000230BDF80230019A13441B68002B14BF70
:1014F00001230023DBB2184602B0704708B54FF451
:1015000080710B48FFF7E8FF0346002B0ED0094B14
:1015100000225A714FF480710548FFF7CFFF054B49
:101520001B68044A926811460020984700BF08BD16
:10153000009002409401002084B00346ADF80630CC
:10154000BDF8063003F1804303F5504300221A60D2
:10155000BDF8063003F1804303F550431B68039345
:10156000039B00BF04B07047024BD3F80835DBB2D1
:101570001846704700D0004000B583B04FF480702B
:10158000FFF7DAFFFFF7F0FF03468DF80730054B52
:101590001B689DF807201046984700BF03B05DF810
:1015A00004FB00BFA001002082B001900091019BCC
:1015B000009AC3F8082300BF02B0704782B00190C0
:1015C0000091019BD3F80423009B1340184602B0FE
:1015D000704782B001900B46ADF80230BDF8023082
:1015E000019A13441B68184602B0704784B00190FA
:1015F0000B46ADF80230BDF80230019A13440022C8
:101600001A60BDF80230019A13441B680393039BD0
:1016100000BF04B0704782B001900091019B009A16
:10162000C3F8482300BF02B07047000000B589B07E
:101630000390029101924FF4803306934FF4A0730C
:10164000ADF816300023079330E006990398FFF7B2
:10165000B5FF0346002B1ED0BDF81630194603987F
:10166000FFF7B7FF0346002B15D006990398FFF745
:10167000D2FF06990398FFF797FFBDF81630194679
:101680000398FFF7B3FF2D4A029B52F82330079AC5
:10169000D2B210469847069B5B000693BDF8163001
:1016A0000433ADF81630079B01330793079A019B6B
:1016B0009A42CAD34FF48073ADF8163001210398D3
:1016C000FFF77CFF0346002B14D0BDF816301946F7
:1016D0000398FFF77EFF0346002B0BD0BDF81630B2
:1016E00019460398FFF782FF144A029B52F82330F1
:1016F000042098474FF48273ADF816300221039806
:10170000FFF75CFF0346002B14D0BDF816301946D6
:101710000398FFF75EFF0346002B0BD0BDF8163091
:1017200019460398FFF762FF044A029B52F82330E0
:101730000520984700BF09B05DF804FBA401002014
:1017400008B5032200210248FFF770FF00BF08BD63
:1017500000B0004008B5042201210248FFF766FFEF
:1017600000BF08BD0040024082B003468DF807303C
:101770009DF8073003F1804303F5E04301221A602E
:1017800000BF02B0704782B00346ADF80630BDF826
:10179000063003F1804303F5E0431B68002B14BFC0
:1017A00001230023DBB2184602B0704784B0034621
:1017B000ADF80630BDF8063003F1804303F5E04391
:1017C00000221A60BDF8063003F1804303F5E043C0
:1017D0001B680393039B00BF04B0704782B0019065
:1017E0000091054A019BC2F82C36034A009BC2F8BF
:1017F000303600BF02B070470070004000B58DB0B9
:101800004FF48270FFF7BFFF0346002B46D04FF422
:101810008270FFF7CBFF8C4B93F82E3083F00103DF
:10182000DBB2002B04D1884B93F82F30002B35D03E
:1018300000238DF81830844B5B680793824B1B891B
:101840009BB2ADF82030804BDB68002B03D17E4B80
:1018500000221A7419E07C4B1A8B7B4B5A837A4B0B
:10186000DB68794A5360784B1A8B774B1A81764B39
:101870000022DA60744B93F82E3083F00103DBB260
:10188000002B02D00020FFF76FFF6F4B1B6806AAEA
:10189000104698476C4B002283F82F206A4B93F830
:1018A0002E30002B62D04FF48070FFF76CFF0346A0
:1018B000002B5BD04FF48070FFF778FF624B5A8BA0
:1018C000614B93F82D309BB29A421CD95E4B5A8BD8
:1018D0005D4B93F82D309BB2D31A9AB25A4B5A8370
:1018E000594B5A68584B1B899BB21946564B5B8B18
:1018F000CB1A5B001A44544B93F82D30194610460E
:10190000FFF76CFF2BE0504B5A8B4F4B93F82D3069
:101910009BB29A4214D14C4BDB68002B10D04A4B3F
:10192000012283F82F20484B00225A83464BDA6865
:10193000454B93F82D3019461046FFF74FFF0EE048
:10194000414B5A8B404B93F82D309BB29A4206D1B3
:101950003D4B012283F82F203B4B00225A834FF44A
:101960008270FFF723FF0420FFF7FEFE4FF488701C
:10197000FFF709FF0346002B0ED04FF48870FFF7E6
:1019800015FF314B00221A7402238DF80C302E4BB8
:101990001B6803AA104698474FF48A70FFF7F3FEBE
:1019A0000346002B07D04FF48A70FFF7FFFE264B4B
:1019B00000221A7444E0244B5B690B933DE00B9BBF
:1019C000B3FA83F30A934FF000420A9B22FA03F31F
:1019D000DB430B9A13400B930A9B9BB246339BB29B
:1019E0009B00ADF82630BDF826301846FFF7CBFE39
:1019F0000346002B21D0BDF826301846FFF7D6FE4F
:101A000001238DF80030BDF82630A3F58C73DB0878
:101A1000DBB28DF80430BDF82630A3F58C7303F0EB
:101A20000403002B0CBF01230023DBB28DF805302B
:101A3000054B1B686A46104698470B9B002BBED18E
:101A400000BF0DB05DF804FBAC01002084B0019034
:101A50000B46ADF80230BDF80230019A1344002263
:101A60001A60BDF80230019A13441B680393039B6C
:101A700000BF04B0704782B001900B46ADF8023051
:101A8000BDF80230019A13441B68002B14BF0123D8
:101A90000023DBB2184602B07047000000B583B0E7
:101AA0000190019B1B682F2B04D90B4940F2CD10EC
:101AB00003F0A2FA019B1B681F2B02D84FF0A04332
:101AC00006E0019B1B6803F01F02019B1A60034B99
:101AD000184603B05DF804FB249900000003005091
:101AE00000B585B0019001AB1846FFF7D7FF039012
:101AF000019B012202FA03F31946039800F018F83B
:101B000000BF05B05DF804FB00B585B0019001ABE6
:101B10001846FFF7C3FF0390019B012202FA03F36B
:101B20001946039800F00EF800BF05B05DF804FBFD
:101B300082B001900091019B009AC3F8082500BF74
:101B400002B0704782B001900091019B009AC3F8E7
:101B50000C2500BF02B0704700B583B00190019B17
:101B6000DB7FFF2B0ED0019B9B7F002B05D0019BC1
:101B7000DB7F1846FFF7C8FF04E0019BDB7F1846B8
:101B8000FFF7AEFF019B00225A77019B00221A72D9
:101B9000019B1B68019A02F10800019A52681146E4
:101BA000984700BF03B05DF804FB000000B583B0A8
:101BB000019000914FF48C710198FFF75CFF034690
:101BC000002B10D04FF48C710198FFF73FFF009B62
:101BD0001B68002B04D106494FF4277003F00CFA60
:101BE0000098FFF7B9FF00BF03B05DF804FB00BF2A
:101BF0005499000008B503490348FFF7D7FF00BF19
:101C000008BD00BF4802002000F0024000B585B0CA
:101C100003468DF807309DF80730052B04D91B4982
:101C200040F2691003F0E8F99DF80730184A52F8BD
:101C300023300393039B002B04D1144940F26B1013
:101C400003F0DAF99DF80730124A32F81330ADF894
:101C50000A309DF807300F4A32F813301AB2BDF936
:101C60000A30DB431BB213401AB29DF8073091B221
:101C7000084A22F81310BDF80A109DF80720039BAC
:101C80001046984700BF05B05DF804FBDC990000E2
:101C9000780200206C02002008B50020FFF7B6FF94
:101CA00000BF08BD08B50120FFF7B0FF00BF08BDA9
:101CB00008B50220FFF7AAFF00BF08BD08B5032042
:101CC000FFF7A4FF00BF08BD08B50420FFF79EFF83
:101CD00000BF08BD08B50520FFF798FF00BF08BD8D
:101CE000014B9B681846704710E000E082B00190FD
:101CF000054B1B68054AA2FB03239B0C019A02FBC0
:101D000003F3184602B070473000002083DE1B4307
:101D100000B585B00190019BB3F5000F03D30B49CB
:101D2000902003F069F9FFF7DBFF039000BFFFF796
:101D3000D7FF0246039B9B1A23F07F43019A9A42E6
:101D4000F5D800BF05B05DF804FB00BF309A000075
:101D500000B583B001900D4B1B680D4AA2FB032315
:101D60009B0C0C4AB2FBF3F3019A9A4203D90A493D
:101D70009B2003F041F90198FFF7B8FF034618468E
:101D8000FFF7C6FF00BF03B05DF804FB3000002082
:101D900083DE1B43FFFF7F00309A000084B0019078
:101DA0000B46ADF80230BDF80230019A1344002210
:101DB0001A60BDF80230019A13441B680393039B19
:101DC00000BF04B0704782B001900B46ADF80230FE
:101DD000BDF80230019A13441B68002B14BF012385
:101DE0000023DBB2184602B0704782B00190009128
:101DF000019BD3F80423009B1340002B14BF012345
:101E00000023DBB2184602B0704782B00190019BFC
:101E10009B0003F5A0739BB2184602B0704782B0D6
:101E200001904FF48032019B02FA03F3184602B08E
:101E3000704700B587B00390029113468DF80730C4
:101E400000238DF8173030E09DF817301846FFF763
:101E5000DCFF0346ADF814309DF817301846FFF745
:101E6000DEFF0490BDF8143019460398FFF7ABFF6E
:101E70000346002B14D004990398FFF7B6FF0346DE
:101E8000002B0DD0BDF8143019460398FFF786FFDC
:101E9000029B1B68029A5168BDF8142010469847AF
:101EA0009DF8173001338DF817309DF817209DF8F5
:101EB00007309A42C8D300BF07B05DF804FB0000AA
:101EC00008B5042202490348FFF7B3FF00BF08BD6D
:101ED000900200200080004008B504220249034817
:101EE000FFF7A7FF00BF08BD9C0200200090004044
:101EF00008B5042202490348FFF79BFF00BF08BD55
:101F0000A802002000A0004008B5062202490348AC
:101F1000FFF78FFF00BF08BDB402002000A0014002
:101F200008B5062202490348FFF783FF00BF08BD3A
:101F3000C002002000B0014082B00190019B9A00D5
:101F4000024B1B681344184602B07047CC9B00003C
:101F500082B00190019B03F1804303F51C331846C6
:101F600002B0704782B00190019B03F1804303F5FA
:101F70001C33184602B0704700B583B003468DF895
:101F800007309DF807301846FFF7E2FF02460123AD
:101F90001360BFF36F8FBFF34F8F00BF03B05DF8C7
:101FA00004FB00B583B00346ADF80630BDF806303B
:101FB0001846FFF7CDFF024600231360BFF36F8F73
:101FC000BFF34F8F00BF03B05DF804FB00B583B0D3
:101FD0000346ADF80630BDF806301846FFF7C2FFDD
:101FE00003461B68002B14BF01230023DBB21846F5
:101FF00003B05DF804FB00B585B00346ADF80630CC
:10200000BDF806301846FFF7E1FF03468DF80F30A4
:102010009DF80F30002B04D0BDF806301846FFF7AE
:10202000C0FF9DF80F30184605B05DF804FB0000B6
:10203000024BD3F804331846704700BF00700240CB
:10204000024BD3F800341846704700BF00700240BE
:1020500082B00190054A019BC2F80034BFF36F8F34
:10206000BFF34F8F00BF02B0704700BF0070024047
:1020700000B583B0FFF7E4FF01900198FFF7E8FF98
:10208000BFF36F8FBFF34F8F019B184603B05DF80E
:1020900004FB0000024BD3F86C341846704700BFB5
:1020A0000070024082B00190054A019BC2F86C3476
:1020B000BFF36F8FBFF34F8F00BF02B0704700BFF9
:1020C0000070024000B583B0FFF7E4FF0190019873
:1020D000FFF7E8FF019B184603B05DF804FB000022
:1020E000024BD3F88034DBB21846704700700240D0
:1020F00000B585B003468DF807309DF90730002BF9
:1021000005DA9DF8073003F00F03082B0EDD9DF96B
:102110000730002B05DB9DF8073003F00F03082B79
:1021200004DD1C4940F25F4002F066FF9DF9073074
:10213000002B04DA17494FF48C6002F05DFF9DF824
:10214000073003F00803002B0CD0134BD3F8C03436
:102150000393039B03F48033002B01D000230393EC
:10216000039B13E09DF8073003F00803002B04D015
:10217000084940F26B4002F03FFF074A9DF80730E4
:1021800003F00F0303F5947352F82330184605B09B
:102190005DF804FBB89A00000070024000B585B0FD
:1021A00003468DF807309DF90730002B05DA9DF8BE
:1021B000073003F00F03082B0EDD9DF90730002BCD
:1021C00005DB9DF8073003F00F03082B04DD1849E9
:1021D00040F2714002F010FF9DF90730002B04DA45
:1021E000134940F2724002F007FF9DF8073003F0F8
:1021F0000803002B04D10E4940F2734002F0FCFEAC
:102200000C4BD3F8C0340393039B002B03D14FF046
:10221000FF33039306E0039B03F48033002B01D0CC
:1022200000230393039B184605B05DF804FB00BF31
:10223000B89A00000070024000B583B003468DF8E4
:1022400007309DF90730002B05DB9DF8073003F0C0
:102250000803002B04D00B4940F2834002F0CCFE6F
:10226000094A9DF8073003F00F0303F5947300212A
:1022700042F82310BFF36F8FBFF34F8F00BF03B03F
:102280005DF804FBB89A00000070024082B003467B
:102290008DF80730034A9DF80730C2F8083500BFB3
:1022A00002B0704700700240024BD3F82035184648
:1022B000704700BF00700240044BD3F82C35002B50
:1022C00014BF01230023DBB21846704700700240A0
:1022D00000B587B00346029101928DF80F309DF949
:1022E0000F30002B36DA9DF80F3003F00803002B77
:1022F00008D0354A029BC2F8A036334A019BC2F887
:10230000A4365DE09DF80F3003F00F038DF8173011
:102310009DF81730072B04D92C4940F2345002F0B5
:102320006BFE29499DF8172013469B0013449B0020
:102330000B4403F5C063029A1A6023499DF81720E5
:1023400013469B0013449B000B4403F20463019A61
:102350001A6035E09DF80F3003F00803002B08D019
:10236000194A029BC2F8A037174A019BC2F8A4374A
:1023700026E09DF80F3003F00F038DF816309DF81E
:102380001630072B04D9114940F2435002F034FEB5
:102390000D499DF8162013469B0013449B000B44E7
:1023A00003F5E063029A1A6007499DF81620134668
:1023B0009B0013449B000B4403F20473019A1A60C0
:1023C00000BF07B05DF804FB00700240B89A00003F
:1023D000044B1B68082B0CBF01230023DBB21846FB
:1023E000704700BF3001001008B5FFF7F1FF03464A
:1023F000002B05D0054B1B68002B01D0012300E00A
:10240000002303F00103DBB2184608BD34010010BD
:1024100008B5FFF7DDFF0346002B09D0FFF7E4FF07
:10242000034683F00103DBB2002B01D0012300E05F
:10243000002303F00103DBB2184608BD08B5FFF71F
:10244000C7FF0346184608BD08B5FFF7C1FF03469E
:10245000002B09D0FFF7C8FF034683F00103DBB26E
:10246000002B01D0012300E0002303F00103DBB2C5
:10247000184608BD00B583B003468DF807309DF9B6
:102480000730002B05DA9DF8073003F00F03082B07
:102490000EDD9DF90730002B05DB9DF8073003F0BA
:1024A0000F03082B04DD0B4940F27B1002F0A4FD62
:1024B0009DF90730002B01DA074A00E0074A9DF832
:1024C000073003F00F035B0013441B88184603B06A
:1024D0005DF804FBE89A0000A49B0000B89B000094
:1024E00000B583B003468DF807309DF90730002B07
:1024F00005DA9DF8073003F00F03082B0EDD9DF978
:102500000730002B05DB9DF8073003F00F03082B85
:1025100004DD054940F28E2002F06EFD9DF8073083
:10252000184603B05DF804FBE89A000000B583B0DC
:1025300003468DF807309DF90730002B05DA9DF82A
:10254000073003F00F03082B0EDD9DF90730002B39
:1025500005DB9DF8073003F00F03082B04DD0C4961
:1025600040F29B2002F048FD9DF90730002B01DA74
:10257000042200E028229DF8073003F00F03DBB2AD
:102580009B00DBB21344DBB2184603B05DF804FBDA
:10259000E89A000000B583B003468DF807309DF936
:1025A0000730002B05DA9DF8073003F00F03082BE6
:1025B0000EDD9DF90730002B05DB9DF8073003F099
:1025C0000F03082B04DD0B4940F2AB2002F014FD91
:1025D0009DF90730002B01DA074A00E0074A9DF811
:1025E000073003F00F031B011344184603B05DF8D6
:1025F00004FB00BFE89A000074030020E4020020FE
:1026000000B583B003468DF807309DF90730002BE5
:1026100005DA9DF8073003F00F03082B0EDD9DF956
:102620000730002B05DB9DF8073003F00F03082B64
:1026300004DD0B4940F2BE2002F0DEFC9DF90730BC
:10264000002B01DA002200E010229DF8073003F091
:102650000F03DBB21344DBB2184603B05DF804FB92
:10266000E89A000082B003468DF807309DF80730E5
:102670000F2B04D99DF80730103BDBB204E09DF826
:10268000073063F07F03DBB2184602B070470000EA
:1026900008B5FFF7D3FE0346002B02D0034B82227E
:1026A0001A60034B01221A7000BF08BD1C7C024057
:1026B000DC02002008B5FFF7C1FE0346002B02D064
:1026C000034B00221A60034B00221A7000BF08BDA2
:1026D0001C7C0240DC02002000B583B003468DF86C
:1026E00007309DF807301846FFF720FF03461846CD
:1026F000FFF742FC00BF03B05DF804FB10B586B0E5
:1027000003468DF80730002001F068FB9DF8073084
:102710001846FFF73FFF05909DF90730002B39DB86
:10272000614B1B68DC439DF807301846FFF768FFD4
:1027300003461A46012393402340002B05D09DF801
:102740000730184600F0D6FF20E0059B00221A60F3
:102750009DF807301846FFF753FF03461A4601233A
:102760009340DA43504B1B6813404F4A13609DF867
:1027700007301846FFF744FF03461A4601239340EB
:10278000DA434A4B1B681340484A1360059B0322F7
:102790009A7383E09DF8073003F00803002B37D1CC
:1027A0009DF80730802B1CD09DF8073003F00F03F5
:1027B00003F2DA333E4A5B0013603E4B1B688DF830
:1027C00013309DF8133043F002038DF81330394B6A
:1027D0001A689DF81330374913430B60354B1B685B
:1027E00016E0334B40F2B4721A60324B1B688DF81E
:1027F00012309DF8123043F004038DF812302D4B47
:102800001A689DF812302B4913430B60294B1B6843
:10281000264B1B68DA43244B1B6842EA03049DF8ED
:1028200007301846FFF7ECFE03461A460123934093
:102830002340002B32D09DF807301846FFF7E0FE0A
:1028400003461A4601239340DA43174B1B68134093
:10285000154A13609DF807301846FFF7D1FE03466E
:102860001A46012303FA02F2104B1B6813430F4A66
:102870001360059B00221A60059B03229A730623AE
:102880008DF80C309DF807308DF80E3003238DF84D
:102890000F30094B1B6803AA10469847002001F02F
:1028A000B1FA00BF06B010BDD8020020D40200204B
:1028B0000078024004780240CC02002000B583B0CA
:1028C000094B00221A70094B00221A700023019351
:1028D00001238DF80430064B1B6801AA1046984767
:1028E00000BF03B05DF804FBD0020020D10200203D
:1028F000CC02002000BF704700B583B080238DF864
:102900000730FFF7D7FE9DF807301846FFF742FE65
:102910000090009B9B7B032B0ED19DF8073018463F
:10292000FFF76EFE03461A4601239340DB43194628
:102930000C48FDF74DFD11E0009B1B68002B0DD1ED
:102940009DF807301846FFF75BFE03461A46012341
:102950009340DB4319460348FDF73AFD00BF03B03F
:102960005DF804FBD802002000B585B003468DF861
:1029700007309DF90730002B04DB264940F2BF30B9
:1029800002F03AFB9DF8073003F00803002B04D057
:1029900020494FF4707002F02FFB9DF8073003F0D0
:1029A0000F03002B04DC1B4940F2C13002F024FB72
:1029B000FFF780FE9DF807301846FFF7EBFD039008
:1029C000039B9B7B032B0ED19DF807301846FFF726
:1029D00017FE03461A4601239340DB4319460E486F
:1029E000FDF7F6FC11E0039B1B68002B0DD19DF851
:1029F00007301846FFF704FE03461A4601239340AA
:102A0000DB4319460448FDF7E3FC00BF05B05DF861
:102A100004FB00BFE89A0000D802002000B585B092
:102A200003468DF807309DF90730002B04DB284959
:102A300040F2DD3002F0E0FA9DF8073003F00803C1
:102A4000002B04D1224940F2DE3002F0D5FAFFF724
:102A500031FE9DF807301846FFF79CFD0390039B5D
:102A60009B7B032B0ED19DF807301846FFF7C8FD5E
:102A700003461A4601239340DB4319461548FDF7E8
:102A8000A7FC20E0039B1B68002B1CD19DF807309E
:102A90001846FFF7B5FD03461A4601239340DB4372
:102AA00019460C48FDF794FC06238DF808309DF874
:102AB00007308DF80A3000238DF80B30064B1B6869
:102AC00002AA1046984700BF05B05DF804FB00BF9E
:102AD000E89A0000D8020020CC02002000B585B0A2
:102AE00000238DF80F30FFF7E5FD9DF80F301846F5
:102AF000FFF750FD0290029B9B7B032B0ED19DF8AC
:102B00000F301846FFF77CFD03461A460123934019
:102B1000DB4319461548FDF75BFC23E0029B1B686D
:102B2000002B1DD19DF80F301846FFF769FD0346B5
:102B30001A4601239340DB4319460C48FDF748FC35
:102B400006238DF804309DF80F308DF806300023F1
:102B50008DF80730064B1B6801AA1046984701E024
:102B600000F0A7FD00BF05B05DF804FBD80200200F
:102B7000CC02002000B585B003468DF807309DF9E2
:102B80000730002B04DA2E4940F21D4002F034FADF
:102B90009DF8073003F00803002B04D0284940F2C9
:102BA0001E4002F029FA9DF8073003F00F03002BB6
:102BB00004DC234940F21F4002F01EFAFFF77AFDC1
:102BC0009DF807301846FFF7E5FC0390039B9B7BBD
:102BD000032B0ED19DF807301846FFF711FD034671
:102BE0001A4601239340DB4319461648FDF7F0FBD4
:102BF00020E0039B1B68002B1CD19DF80730184672
:102C0000FFF7FEFC03461A4601239340DB431946B7
:102C10000C48FDF7DDFB06238DF808309DF80730E2
:102C20008DF80A3000238DF80B30074B1B6802AA81
:102C30001046984700F086FA00BF05B05DF804FB27
:102C4000E89A0000D8020020CC02002000B585B030
:102C500003468DF807309DF8073003F00803002B7A
:102C600004D11B4940F2434002F0C6F9FFF722FDB0
:102C70009DF807301846FFF78DFC0390039B9B7B64
:102C8000032B20D0039B1B68002B1CD19DF8073021
:102C90001846FFF7B5FC03461A4601239340DB4371
:102CA00019460C48FDF794FB06238DF808309DF873
:102CB00007308DF80A3000238DF80B30064B1B6867
:102CC00002AA1046984700BF05B05DF804FB00BF9C
:102CD000E89A0000D8020020CC02002008B5FFF7D7
:102CE0000BFE00BF08BD08B58120FFF73DFE00BF09
:102CF00008BD08B58220FFF737FE00BF08BD08B544
:102D00008320FFF731FE00BF08BD08B58420FFF720
:102D10002BFE00BF08BD08B58520FFF725FE00BFCC
:102D200008BD08B58620FFF71FFE00BF08BD08B527
:102D30008720FFF719FE00BF08BD08B58820FFF700
:102D40006DFE00BF08BD08B5FFF7C8FE00BF08BD97
:102D500008B50120FFF70EFF00BF08BD08B502202F
:102D6000FFF708FF00BF08BD08B50320FFF702FF0B
:102D700000BF08BD08B50420FFF7FCFE00BF08BD7A
:102D800008B50520FFF7F6FE00BF08BD08B5062010
:102D9000FFF7F0FE00BF08BD08B50720FFF7EAFE09
:102DA00000BF08BD08B50820FFF750FF00BF08BDF1
:102DB00000B583B000238DF80030FFF775FA0346A5
:102DC0009BB2ADF802308820FFF71AFC03461A4682
:102DD0000123934001930820FFF7E0F90346B3F184
:102DE000FF3F09D00820FFF70BFC03461A460123DA
:102DF0009340019A13430193074B1A68019B1343B5
:102E0000054A1360054B1B686A461046984700BF89
:102E100003B05DF804FB00BFD4020020CC02002008
:102E200000B585B003460A468DF8073013468DF885
:102E300006309DF8063001229A402B4B1B68134345
:102E4000294A13609DF90730002B30DA9DF80730CE
:102E50001846FFF70FFB03461846FFF7CCF803466A
:102E6000002B0BD09DF80730802B05D09DF8073044
:102E70001846FFF779FD01E0FFF73EFD9DF80630AB
:102E800001229A40194B1B681340002B27D10623BF
:102E90008DF80C309DF807308DF80E3000238DF83A
:102EA0000F30134B1B6803AA1046984717E09DF894
:102EB000063001229A400D4B1B681340002B0ED1A7
:102EC00006238DF808309DF807308DF80A3001236D
:102ED0008DF80B30064B1B6802AA1046984700BFBE
:102EE00005B05DF804FB00BFD4020020D80200202A
:102EF000CC02002010B5074B1C78064B1B781846F7
:102F0000FFF77EFB034619462046FFF789FF00BF07
:102F100010BD00BFD102002010B582B0FFF7E0F86D
:102F200003468DF80730284B1B68DB439AB2274BCA
:102F30001B6842EA0304264B1B781846FFF760FB28
:102F400003461A46012393402340002B04D0204B14
:102F50001B781846FFF7D2FB9DF90730002B01DBE9
:102F6000002200E080221A4B1A700020FFF748FB75
:102F700003461A46012303FA02F48020FFF740FBC0
:102F800003461A46012393402343DB4319460F4867
:102F9000FDF71EFA8020FFF733FB03461A46012394
:102FA00003FA02F2084B1B681343074A136000231D
:102FB000009305238DF80030064B1B686A461046C7
:102FC000984700BF02B010BDD4020020D8020020F4
:102FD000D1020020CC02002000B585B0FFF748F8F0
:102FE0000390039B03F48073002B0CD0264B01222B
:102FF0001A700023029302238DF80830234B1B68BC
:1030000002AA10469847039B03F40073002B0CD0D0
:103010001D4B00221A700023019303238DF8043006
:103020001A4B1B6801AA10469847039B03F4806360
:10303000002B24D0144B1B78DBB2002B1FD0FFF7E2
:103040003BF9034683F00103DBB2002B04D11049A6
:1030500040F2FE4001F0D0FF0B4B00221A7001201D
:10306000FFF714F95820FEF787FF0023009304238D
:103070008DF80030054B1B686A461046984700BF24
:1030800005B05DF804FB00BFD0020020CC02002098
:10309000E89A000000B585B0FFF714F80390FFF739
:1030A000B7F90346002B31D01D4B1B6823F00113E9
:1030B000039A134303931A4B1B6803F00113184A36
:1030C000136023E0039B0193019B93FAA3F3009306
:1030D000009BB3FA83F38DF80B309DF80B30184644
:1030E000FFF7C0FA03468DF80A309DF80B30012235
:1030F00002FA03F3DB43039A134003939DF80B207A
:103100009DF80A3011461846FFF78AFE039B002BF4
:10311000D8D100F017F800BF05B05DF804FB00BF80
:10312000E002002084B00190019B0393039B93FA7B
:10313000A3F30293029BB3FA83F3DBB2184604B005
:103140007047000010B58CB0994B1B7883F00103D9
:10315000DBB2002B00F028811AE1089B03F0012369
:10316000002B09D0089B03F001231846FFF7DAFF74
:1031700003468DF82F3005E00898FFF7D3FF03468C
:103180008DF82F309DF82F301846FFF76BFA034665
:103190008DF81F309DF81F301846FFF7FBF9069099
:1031A000069B1B68002B04D1824940F2715001F04C
:1031B00023FF9DF91F30002B15DA069B1B68069A2A
:1031C0005168069A928902A8984703468DF81730ED
:1031D0009DF8173083F00103DBB2002B56D0069B1D
:1031E00000221A6052E09DF81F30184600F04EFA97
:1031F0000490069B1C68069B5968069B9B891A468F
:1032000002A8049BA04703468DF81730029B002BB1
:1032100008D1039B002B2FD0664940F28D5001F05E
:10322000EBFE29E0039B049A9A421CD9069B0222DA
:103230009A739DF82F30012202FA03F3DB431946FB
:103240005D48FDF7C5F806238DF804309DF81F3062
:103250008DF8063002238DF80730584B1B6801AA01
:103260001046984794E0039B049A9A4204D051492F
:1032700040F29C5001F0C0FE9DF8173083F001032E
:10328000DBB2002B02D0069B00221A60FFF700FA87
:103290009DF82F30012202FA03F3DA43484B1B68F2
:1032A0001340474A1360069B9A68039B1A44069B87
:1032B0009A600299039A9DF81F301846FFF708F8A4
:1032C000FFF7A6F80346002B41D04FF0FF330A93D7
:1032D0004FF0FF3309934FF48270FEF762FE9DF8C2
:1032E0001F301846FFF7F8F90220FEF731FD099B61
:1032F000013309934FF48270FEF768FE034683F0B2
:103300000103DBB2002BE6D11E20FEF721FD02E017
:103310000220FEF71DFD2B4B1B6803F02003002B42
:10332000F6D00120FEF714FD0A9B01330A939DF8A5
:103330001F301846FFF79EF803461846FEF746FE74
:10334000034683F00103DBB2002BC1D12BE09DF8D3
:103350001F301846FFF7C0F900BF9DF81F30184610
:10336000FFF788F803461846FEF730FE034683F061
:103370000103DBB2002B16D04FF48070FEF726FE5F
:10338000034683F00103DBB2002BE6D100BF0BE064
:10339000094B1A680A4B1B6813400893089B002BC3
:1033A0007FF4DBAE00E000BF00BF0CB010BD00BF7B
:1033B000DC020020E89A0000D8020020CC020020A5
:1033C000D40200207474024000B58BB0FEF730FECA
:1033D0000690069B09930023089328E0099B03931A
:1033E000039B93FAA3F30293029BB3FA83F38DF842
:1033F00017309DF817301846FEF79EFD03469BB226
:103400001846FEF7F8FD0346002B07D09DF817304D
:10341000012202FA03F3089A134308939DF8173028
:10342000012202FA03F3DB43099A13400993099B33
:10343000002BD3D1FEF7ECFF0346002B00F0E28017
:103440008C4B1B7883F00103DBB2002B00F0DA8099
:10345000089B03F40013002B00F0D480864B40F24D
:10346000A9721A60854B1B688DF81D309DF81D30C0
:10347000002B07D0814B1B68DAB29DF81D3013403A
:103480008DF81D307C4B40F2AA721A607B4B1B6892
:103490008DF81E309DF81E30002B07D0774B1B682F
:1034A000DAB29DF81E3013408DF81E30724B40F298
:1034B000AB721A60714B1B688DF81F309DF81F307E
:1034C000002B07D06D4B1B68DAB29DF81F301340FC
:1034D0008DF81F30684B40F2AC721A60674B1B6866
:1034E000DAB29DF81D3013408DF81D309DF81D3067
:1034F000002B12D09DF81D20614B1B681343604ABE
:1035000013605D4B40F2A9721A605C4A9DF81D3051
:1035100013605A4B1B688DF81630574B40F2AD7252
:103520001A60564B1B68DAB29DF81E3013408DF8B6
:103530001E309DF81E30002B13D09DF81E301A044B
:103540004F4B1B6813434E4A13604B4B40F2AA7219
:103550001A604A4A9DF81E301360484B1B688DF86C
:103560001530454B40F2AE721A60444B1B68DAB21C
:103570009DF81F3013408DF81F309DF81F30002B31
:103580001FD09DF81F3003F00103002B03D0089BD0
:1035900043F4000308939DF81F3003F01003002B41
:1035A00003D0089B43F001030893334B40F2AB7206
:1035B0001A60324A9DF81F301360304B1B688DF83B
:1035C00014302F4B1B6823F00113002B05D0069BF2
:1035D00003F08073089A13430893294B1B6803F088
:1035E0000113002B0ED0069B03F48063002B09D03F
:1035F000234B1B6823F00113214A1360089B43F4FB
:1036000080630893089B03F40003002B14BF01237D
:1036100000238DF81330089B23F40003089319E06E
:10362000089B0193019B93FAA3F30093009BB3FAC9
:1036300083F38DF812309DF81230124A52F823307D
:1036400098479DF81230012202FA03F3DB43089AEF
:1036500013400893089B002BE2D1FFF773FD9DF800
:103660001330002B01D0084B984700BF0BB05DF81A
:1036700004FB00BFDC020020007802400478024016
:10368000E0020020409B0000192F000000B583B02D
:1036900003468DF807309DF807301846FEF720FFE7
:1036A00003461846FEF724FD0346184603B05DF8AE
:1036B00004FB00B585B0FEF7ABFE0346002B11D02E
:1036C000EFF310830193019B039372B64C20FEF736
:1036D00053FC4C20FEF750FC039B0293029B83F3A8
:1036E000108802E04C20FEF747FC00BF05B05DF8F3
:1036F00004FB000000B583B003468DF807309DF948
:103700000730002B04DA294940F6291001F074FC37
:10371000FEF79AFE0346002B23D0002000F05EFB4C
:103720009DF807301846FEF76BFF03461A46012343
:103730009340DA431E4B1B6813401D4A13609DF8EB
:10374000073003F00F035B001A4A03F2C5731360DE
:10375000194B00221A60184B1B68002000F052FB26
:103760001FE0002000F03AFB9DF807301846FEF7F6
:1037700047FF03461A4601239340DA430C4B1B686C
:1037800013400B4A13609DF8073003F00803002B29
:1037900004D19DF807301846FEF74EFD002000F0DA
:1037A00031FB00BF03B05DF804FB00BFE89A0000E6
:1037B000D4020020007802400478024084B003461E
:1037C000ADF80630BDF8063003F1804303F58033D1
:1037D00000221A60BDF8063003F1804303F5803300
:1037E0001B680393039B00BF04B0704782B003467D
:1037F000ADF80630BDF8063003F1804303F58033A1
:103800001B68002B14BF01230023DBB2184602B053
:103810007047000008B54FF48070FFF7E7FF0346DC
:10382000002B06D0044B1B6898474FF48070FFF7BD
:10383000C5FF00BF08BD00BF04040020FEE7000074
:1038400000B583B00190019B002B03D10649722083
:1038500001F0D2FB019B00221A60BFF35F8F00BF13
:1038600003B05DF804FB00BFD09B000008B5024820
:10387000FFF7E6FF00BF08BD0804002084B00190F8
:1038800003230393019B002B02D10023039302E047
:103890000323039300BF039B184604B07047000046
:1038A00000B585B0FFF7E2FF134B0122C3F80025F6
:1038B00005F0A6F90390104B0022C3F800250398E9
:1038C000FFF7DCFF0290029B0193019B002B01D0CC
:1038D000019B0CE00021002004F026F80290029BDE
:1038E0000093009B002B01D0009B00E0029B184638
:1038F00005B05DF804FB00BF00A0025000B583B026
:103900000021002004F010F80190019B0093009B1F
:10391000002B01D0009B0AE0074B0122C3F80025D1
:1039200005F09AF9044B0022C3F80025002318463D
:1039300003B05DF804FB00BF00A0025000B585B0E5
:103940000190019B002B03D10A49852001F054FB13
:103950000121019801F0CFFB0390BFF35F8F039B20
:10396000002B0CBF01230023DBB2184605B05DF825
:1039700004FB00BF089C000000B583B00190019BD0
:10398000002B03D10A49922001F036FB019B1B68F2
:10399000012B03D00649932001F02EFBBFF35F8F6C
:1039A000019B00221A6000BF03B05DF804FB00BF5A
:1039B000089C000008B50348FFF7C0FF03461846FF
:1039C00008BD00BF0804002008B50248FFF7D4FF77
:1039D00000BF08BD0804002084B00190019B584A34
:1039E00093423BD8019B574A93427DD2019B564A52
:1039F000934219D8019B554A934280F08580019BE0
:103A0000534A934278D0019B514A934203D8019B79
:103A1000002B62D08CE0019B4E4A934268D0019B00
:103A20004D4A93426CD083E0019B4C4A934277D03D
:103A3000019B4A4A934208D8019B494A934267D066
:103A4000019B484A93426FD072E0019B464A9342E1
:103A50004ED0019B454A93424AD069E0019B444ABB
:103A6000934259D0019B424A934219D8019B414A43
:103A7000934245D0019B3F4A934208D8019B3E4A5E
:103A800093423DD0019B3D4A934241D050E0019B7F
:103A90003B4A934238D0019B3A4A934220D047E0B8
:103AA000019B394A934233D0019B374A934208D84D
:103AB000019B364A93422FD0019B354A93421BD03B
:103AC00036E0019B334A93421ED0019BA3F570035D
:103AD000A3F63443012B2BD80AE0002303932BE0F9
:103AE00048F21753039327E048F27053039323E0FF
:103AF00048F2035303931FE048F2135303931BE070
:103B000048F21053039317E048F21153039313E064
:103B100048F2145303930FE048F2015303930BE070
:103B200048F20253039307E048F27153039303E012
:103B300048F21653039300BF039B184604B0704726
:103B4000120CF000100CF000050CF000040CF0005A
:103B5000000CF000010CF000030CF000080CF00069
:103B6000060CF000070CF0000D0CF0000F0CF0003C
:103B7000250CF000220CF000200CF000210CF000CD
:103B8000230CF000240CF000310CF000270CF000A6
:103B9000300CF000320CF00000B589B001900091BB
:103BA000009B0793019B0693069B1B68144A934254
:103BB00001D1002320E0FFF7FDFE03468DF817300A
:103BC0009DF8173083F00103DBB2002B02D048F2DE
:103BD000045311E000F044F8069B0433079918469B
:103BE00004F04AFB04900498FFF7F6FE039000F0FF
:103BF0004FF8FFF7E9FE039B184609B05DF804FB98
:103C00006169614D82B003468DF807309DF8073039
:103C100003F01F0205499DF907305B09012000FAF6
:103C200002F241F8232000BF02B0704700E100E03B
:103C300082B003468DF807309DF8073003F01F026D
:103C400006499DF907305B09012000FA02F2203392
:103C500041F8232000BF02B0704700BF00E100E040
:103C600008B5094B1B680133074A1360064B1B68F4
:103C7000012B06D1054B0122C3F800252A20FFF7AE
:103C8000C1FF00BF08BD00BF0C04002000A002500F
:103C900008B5094B1B68013B074A1360064B1B68BC
:103CA000002B06D1054B0022C3F800252A20FFF780
:103CB000BFFF00BF08BD00BF0C04002000A00250E1
:103CC00086B003900291019201238DF817309DF880
:103CD0001730204A039B13601E4A029B53601D4A03
:103CE000019B9360039B44F20102934213D0039B18
:103CF00044F20202934221D1019B164AD360154B34
:103D0000DB681B881A46134B9A61124BDB685B68B1
:103D1000104AD36112E0019B0E4A13610D4B1B69DF
:103D20009B680C4A53610B4B1B691B68094A9361E2
:103D3000084B1B695B68074AD36100BF72B600BFBE
:103D40009DF81730DBB2002BFAD162B600BF06B087
:103D5000704700BF1004002000B587B003900291A7
:103D6000019272B6039B44F20102934207D0039B77
:103D700044F20202934205D1019B059303E0019BAB
:103D8000049300E000BF084B1B6803F00103002B05
:103D900000D000BE019A02990398FFF791FF00BF7F
:103DA00007B05DF804FB00BFF0ED00E072B6034B16
:103DB0001B680133014A136000BF704730040020C4
:103DC000054B1B68013B044A1360034B1B68002B27
:103DD00000D162B600BF70473004002000B583B048
:103DE000019000F025F80346012B03D0044943203D
:103DF00001F002F9FFF7DAFF00BF03B05DF804FB42
:103E0000409C000000B583B003468DF8073000F0F9
:103E10000FF80346012B03D00449512001F0ECF8C0
:103E2000FFF7CEFF00BF03B05DF804FB409C00002D
:103E300084B0EFF305830193019BC3F3080303935D
:103E4000039B002B0DD1EFF314830093009B02938F
:103E5000029B03F00103002B0CBF01230023DBB204
:103E600000E00123184604B07047000008B5044B79
:103E70001B68044A12681046984700BF08BD00BF7F
:103E8000340400203804002082B00190019B03F02C
:103E90000303002B0CBF01230023DBB2184602B042
:103EA0007047000000B585B00190002303930EE039
:103EB0000A4A039B52F82330002B05D0074A039B84
:103EC00052F8233001989847039B01330393039BD7
:103ED000032BEDD900BF05B05DF804FB4C040020B6
:103EE00082B001900091019B1B78013B052B61D8AA
:103EF00001A252F823F000BF113F0000193F00005B
:103F00003F3F0000713F0000913F0000AD3F0000C7
:103F1000009B00221A704EE0009B01221A70019B48
:103F20001A89009B9A81019B9A88009BDA81019BE8
:103F3000DA68009B9A60009B00221A743BE0009BA9
:103F400002221A70019B1A89009B9A81019B9A8810
:103F5000009BDA81019BDA68009B9A60019B9B7D44
:103F6000062B0CBF01230023DAB2009B1A7422E057
:103F7000009B03221A70019BDA88009B9A81019BA7
:103F80001A89009BDA81019BDA68009B9A6012E033
:103F9000009B04221A70019BDA88009B9A81009B87
:103FA0000022DA81009B00229A6004E0009B052237
:103FB0001A7000E000BF00BF02B0704784B00190EB
:103FC0000091019B0393039A009B9A4206D2039BA4
:103FD0001B68B3F1FF3F01D0012300E0002303F091
:103FE0000103DBB2184604B0704782B00190019B18
:103FF0005B8803339B00019A1344184602B0704754
:1040000000B583B0019000910198FFF7EEFF0246E2
:10401000009B934201D2022311E0019B9B884FF643
:10402000FF72934208D0019B1B88002B04D0019B98
:104030009B68B3F1FF3F01D1012300E00023184644
:1040400003B05DF804FB000000B583B00190019B54
:10405000002B13D00D4BDB681A46019B93420DD306
:104060000A4B1B691A46019B934207D80198FFF738
:104070000BFF0346002B01D0012300E0002303F0D7
:104080000103DBB2184603B05DF804FB000000201A
:1040900084B00190009148F2096303930023ADF8C6
:1040A0000A3027E0BDF80A20164913469B00134446
:1040B0009B000B4404331B68009A9A4215D9BDF843
:1040C0000A20104913469B0013449B000B44043301
:1040D0001B6803F58053009A9A4206D2002303938B
:1040E000019BBDF80A201A8008E0BDF80A300133B0
:1040F000ADF80A30BDF80A30012BD3D9039B18461E
:1041000004B070476C04002082B001900091009BC5
:104110009B7D022B09D9019B1A89009BDB881344E4
:104120009BB203339AB2019B1A81019B5A89009B6F
:10413000DB88D31A9BB2033B9AB2019B5A8100BF22
:1041400002B0704700B583B0074B1B6819460023C7
:1041500000930823054A064803F008F8034618466A
:1041600003B05DF804FB00BF94040020F09C000045
:104170000000002000B585B0039003990023009350
:104180000823044A044802F0F1FF0346184605B02C
:104190005DF804FBF89C00000000002000B585B02D
:1041A00003460091ADF80630BDF8062022491346BB
:1041B0009B0013449B000B4404331B6803F580539E
:1041C0000293009B1B680393039B002B04D003986E
:1041D000FFF70BFF039023E0BDF8062016491346B6
:1041E0009B0013449B000B4404331B680833039368
:1041F00016E002990398FFF703FF0346012B08D04E
:10420000022B0BD0002B0BD1009B039A1A600123C9
:104210000EE00398FFF7E9FE039001E0002307E0BA
:1042200002990398FFF7CAFE0346002BE1D1002351
:10423000184605B05DF804FB6C04002000B585B09D
:1042400001900091019B5B681846FFF7FDFE034655
:10425000002B19D0019B1A89244B1B899A4213D138
:10426000019B1A68019B5B689B689A420CD1019B79
:104270005B6819460098FFF70BFF0346002B0CBF45
:1042800001230023DBB22CE0009B00221A8023E0F4
:104290000023029310E0029B0393039B9A68019B07
:1042A0001B689A4208D1029A019B5A600F4B1A89E7
:1042B000019B1A81012314E0009B1B8802AA11466E
:1042C0001846FFF76BFF0346002BE4D1009B1B88C9
:1042D00001339AB2009B1A80009B1B88012BD7D90F
:1042E0000023184605B05DF804FB00BF9C040020C5
:1042F00000B587B00390029101920093324B1B7876
:10430000DBB283F00103DBB2002B02D048F2016381
:1043100055E0019B002B02D0009B002B49D148F2B5
:1043200004634CE0009B9B881946284A0B469B007F
:104330000B449B0013441B78002B33D124E0009BDB
:104340001B680593039B002B06D0059B9A88039B53
:104350001B889A4200D017E0029B002B06D0059BD9
:104360001A88029B1B889A4200D00DE0059B9A6830
:10437000019B1A60009B1A68019B5A60144B1A89B2
:10438000019B1A8100231AE0009B9B88009A11462A
:104390001846FFF703FF0346002BD0D1009B0022F5
:1043A0001A6000E000BF009B9B8801339AB2009B1B
:1043B0009A80009B9B88012BB4D948F20963184668
:1043C00007B05DF804FB00BF400400206C0400202F
:1043D0009C04002000B583B00190054B019918465C
:1043E00000F05CFE0346184603B05DF804FB00BF16
:1043F0005C04002000B583B00190044B019918467D
:1044000000F065FE00BF03B05DF804FB5C04002013
:1044100008B50A4B1B68002B04D109494FF42470DE
:1044200000F0EAFD0121054800F07CFE0346002B68
:1044300014BF01230023DBB2184608BD4804002046
:10444000A09C000000B587B003900291039B02225C
:104450009A750299039B1A1D0023009304230748B1
:1044600002F084FE0590059B002B01D1002301E0A2
:1044700048F20D63184607B05DF804FB0000002009
:1044800000B587B003900291039B1B69002B01D0FC
:10449000032200E00122039B9A75029B0833194610
:1044A000039B03F10C02002300930423074802F04E
:1044B0005DFE0590059B002B01D1002301E048F231
:1044C0000D63184607B05DF804FB00BF0000002034
:1044D00000B587B003900291039B1B78032B01D199
:1044E000052200E00622039B9A75029B04331946BD
:1044F000039B03F10802002300930423074802F002
:1045000035FE0590059B002B01D1002301E048F208
:104510000D63184607B05DF804FB00BF00000020E3
:1045200000B587B003900B46ADF80A30039900231D
:10453000009304230D4A0E4802F018FE0590059BD7
:10454000002B02D048F20D630BE0BDF80A200949A8
:1045500013469B0013449B000B44103301221A7036
:104560000023184607B05DF804FB00BF009D000063
:10457000000000206C04002000B589B0019002AB5F
:1045800000221A605A609A60019BDB6802930DF169
:10459000160202AB11461846FFF750FE0346002BE9
:1045A00012D0039B0693069B9A88019BDA80069B98
:1045B0001A88019B1A81039BBDF8162011461846E4
:1045C000FFF7AEFF079002E048F209630793079BED
:1045D000184609B05DF804FB00B587B00190019B57
:1045E000981D02AA0D4B0021FFF782FE0590059B46
:1045F000002B08D1039A094B9B8819461046FFF7F8
:104600008FFF059004E008220021044803F074FCA9
:10461000059B184607B05DF804FB00BFAC04002002
:1046200000B587B003900291039B01229A75029B0B
:104630000C331846039B1A69039BDB8899000023FF
:1046400000930B460146074802F090FD0590059B3C
:10465000002B01D1002301E048F20D63184607B09A
:104660005DF804FB0000002082B0184B1B89013369
:104670009AB2164B1A81154B00225A80134B002216
:104680001A730023ADF8063018E0BDF80620104973
:1046900013469B0013449B000B441A78BDF8063068
:1046A000002A0CBF01220022D1B2084A13440A4654
:1046B0009A72BDF806300133ADF80630BDF8063009
:1046C000012BE2D900BF02B0704700BF9C0400205C
:1046D0006C04002084B0019000238DF80F3000237B
:1046E000ADF80C3031E0BDF80C301C4A13449B7A15
:1046F000002B25D0BDF80C30184A134400229A72C2
:10470000BDF80C20164913469B0013449B000B4434
:104710000C331B68002B13D1BDF80C201049134635
:104720009B0013449B000B4410331B78002B07D0D5
:10473000019BBDF80C201A8001238DF80F3008E092
:10474000BDF80C300133ADF80C30BDF80C30012B46
:10475000C9D99DF80F30184604B070479C0400205A
:104760006C04002008B5084B05221A70074B022282
:104770009A80064B1B68194600230122044802F068
:1047800046FD0346184608BD9C0400209404002002
:104790000000002000B583B0164B5B88ADF80230F6
:1047A000BDF80220144913469B0013449B000B44A0
:1047B0000C331B68002B14D10E4B04221A70BDF869
:1047C00002200D4913469B0013449B000B44043305
:1047D0001B68194600230122084802F018FD0190C9
:1047E00002E0FFF7BFFF0190019B184603B05DF8A0
:1047F00004FB00BF9C0400206C040020000000208B
:1048000000B587B0114B5B680593114B1A68104BCC
:104810009B889B0013440493059B5B880333ADF88E
:104820000E300A4B03221A700499084B5A68BDF8DF
:104830000E309800002300930346064802F096FCD1
:104840000346184607B05DF804FB00BF9C04002037
:10485000940400200000002000B583B00A4B5B8860
:104860000A491846FFF79AFC0346002B03D0FFF7CE
:10487000C7FF019002E0FFF78DFF0190019B1846F2
:1048800003B05DF804FB00BF9C040020A0040020DE
:1048900008B50A4B06221A70084B5B881946084A6D
:1048A0000B469B000B449B00134404331B681846C3
:1048B000FFF760FC0346184608BD00BF9C040020BB
:1048C0006C04002008B5054B07221A70034B002228
:1048D0005A60FFF737FC0346184608BD9C040020C9
:1048E00008B50D48FFF7F6FE034683F00103DBB27F
:1048F000002B0BD0094B00221A70084B00225A8063
:10490000064B00225A6041F61D5302E0FFF7A4FF58
:104910000346184608BD00BF9E0400209C040020EA
:1049200082B0094B5B680193019B5B880333ADF850
:104930000230064B9A88BDF8023013449AB2034BFA
:104940009A8000BF02B070479C04002094040020AD
:1049500082B0184B1B680193174B5B881946174AA6
:104960000B469B000B449B00134404331B68114A05
:104970001360114B5B881946104A0B469B000B4491
:104980009B0013440433019A1A600B4B5B88194651
:10499000084B9888094A0B469B000B449B00134424
:1049A000083302461A80034B02229A8000BF02B0ED
:1049B000704700BF940400209C0400206C04002079
:1049C00008B51A4B1B78072B2CD801A252F823F0FC
:1049D000F1490000254A0000254A0000FD49000079
:1049E000094A0000154A0000154A00001D4A00004F
:1049F000FFF73AFE0D4B01221A7014E0FFF790FF0B
:104A00000A4B02221A700EE0FFF7A2FF074B0622A4
:104A10001A7008E0054B07221A7004E0034B0122CC
:104A20001A7000E000BF00BF08BD00BF9C0400205A
:104A300000B587B00190009148F20E630593019B89
:104A4000002B05D0634B00225A604FF40643BCE0B4
:104A5000009B1B79032B00F2AB8001A252F823F0DC
:104A6000714A00007F4A00000D4B00002D4B0000F2
:104A7000009B01221A71FFF765FB05909BE0002364
:104A80008DF813300023ADF810302BE0BDF8102066
:104A9000514913469B0013449B000B441B78022B87
:104AA0001BD1BDF810204C4913469B0013449B00BA
:104AB0000B4400221A7001238DF81330BDF810202A
:104AC000454913469B0013449B000B4404331B6869
:104AD0001846FFF74FFB059008E0BDF81030013392
:104AE000ADF81030BDF81030012BCFD99DF8133040
:104AF00083F00103DBB2002B5CD0364B01221A702D
:104B0000344B00225A6041F61D535EE0009B0022A8
:104B10001A71324B02229A80304B1B6819460023CF
:104B200001222F4802F073FB059044E0009B002215
:104B30001A712A4B1B681846FFF71CFB0590294B7E
:104B40005B88ADF80E30254B1B680293BDF80E2034
:104B5000214913469B0013449B000B4404331B68FC
:104B60001E4A1360BDF80E201B4913469B001344D8
:104B70009B000B440433029A1A60BDF80E20174BB9
:104B80009888154913469B0013449B000B44083337
:104B900002461A80114B02229A80BDF80E200E495F
:104BA00013469B0013449B000B4400221A7002E042
:104BB00000BF00E000BF059B002B05D0054B002285
:104BC0005A6048F20D6300E00023184607B05DF814
:104BD00004FB00BF400400206C040020940400206B
:104BE000000000209C04002000B587B001900091D7
:104BF000009B9B8A1A4613469B0013449B003B4A2A
:104C000013440493019B002B06D000990498FFF7EE
:104C10007BFA4FF4064364E0049B5A68049B1B89AB
:104C20009B0013440393009B9B7D062B4DD801A250
:104C300052F823F0794C00009D4C0000854C000098
:104C4000914C0000514C0000A94C0000C34C0000E6
:104C5000274B00225A60009B9B69254A1360254917
:104C60002348FFF7EBFA034683F00103DBB2002B86
:104C700002D048F2096334E003990098FFF7E2FBA1
:104C8000059026E003990098FFF7FAFB059020E0D5
:104C900003990098FFF7C4FC05901AE00399009867
:104CA000FFF716FC059014E0009B06229A75104B46
:104CB0005A68104B1B8819461046FFF731FC0590C7
:104CC00007E041F61D53059303E048F20E63059398
:104CD00000BF059B002B03D000990498FFF714FA3E
:104CE000059B184607B05DF804FB00BF6C0400206C
:104CF000B4040020C004002000B585B001900091EC
:104D0000019B002B02D04FF4064326E0009B1B7949
:104D1000012B0BD0022B16D0002B18D1009B0222A6
:104D20001A710098FFF728FC039015E00098FFF730
:104D300053FC0390039B48F2096293420BD141F666
:104D40001D53039307E041F61D53039304E048F21B
:104D50000E63039300E000BF039B184605B05DF8A7
:104D600004FB000000B585B00190019B002B02D030
:104D70004FF406433DE0214B1B7B002B03D01F4B20
:104D800000221A7301E0FFF71BFE1C4B1B78013B4E
:104D9000062B29D801A252F823F000BFB94D00001C
:104DA000C14D0000C94D0000D14D0000E94D00008B
:104DB000D94D0000E14D0000FFF792FD039017E090
:104DC000FFF74AFD039013E0FFF71AFD03900FE091
:104DD000FFF7E0FC03900BE0FFF75AFD039007E0BC
:104DE000FFF770FD039003E048F20E63039300BFEA
:104DF000039B184605B05DF804FB00BF9C0400202F
:104E000000B589B00190404B1B68002B05D13F488D
:104E1000FFF7E0FA02463C4B1A603B4B1B68002B45
:104E200004D13B4940F29B5000F0E6F8364B1B683A
:104E30001B78013B052B2CD801A252F823F000BFB0
:104E4000594E0000694E0000694E0000794E000086
:104E5000794E0000894E00002B4B1B6819460198C3
:104E6000FFF7E6FD019018E0274B1B6819460198F3
:104E7000FFF7BAFE019010E0234B1B68194601981A
:104E8000FFF73AFF019008E00198FFF76BFF0190F0
:104E900003E048F20E63019300BF019B002B2BD06F
:104EA00003AB00221A605A609A60DA601A61019BB3
:104EB00041F61D52934201D0019B00E00023049370
:104EC000114B1B6803AA11461846FFF709F803ABFC
:104ED0001846FEF7E7FF0C4B00221A6000230193EF
:104EE0000A48FFF787FAFFF793FA034683F00103B6
:104EF000DBB2002B02D186E700BF00E000BF00BF9D
:104F000009B05DF804FB00BFC4040020C804002001
:104F1000A09C000000B583B00190019B5B6818461F
:104F2000FFF76EFF00BF03B05DF804FB1EF0040F37
:104F30001CBFEFF309800AE0EFF308800549064A39
:104F4000884201D8904202D88D464FF00000034BB2
:104F5000184700000000042000E003209D4F0000DF
:104F600000BF00BFBFF34F8F054BDB6803F4E06267
:104F70000349044B1343CB60BFF34F8F00BFFDE7E2
:104F800000ED00E00400FA0500B583B00190FFF7E2
:104F9000E9FF00BF03B05DF804FB000000B587B077
:104FA0000190019B0493124B9B6A0393104BDB6AA5
:104FB000002305930AE00122059B02FA03F31A4637
:104FC000039B1340002B059B01330593059B192B75
:104FD000F1D9084B1B6803F00103002B00D000BE81
:104FE0000198FFF7D1FF00BF07B05DF804FB00BFD9
:104FF00000ED00E0F0ED00E000B585B00346009163
:10500000ADF80630BDF80630ADF80830009B0393CC
:1050100002AB1A46002144F20200FEF79DFE00BFDB
:1050200005B05DF804FB86B001900091019B53E848
:10503000021F1FFAA1F2D888824202BFBFF32F8F4E
:1050400000230DE0D88902449889824228BF121AB1
:10505000C1EA024243E802200028E8D14FF00103F0
:105060008DF80F30059002910492029A009B1A600D
:105070009DF80F30DBB2184606B0704784B001903F
:10508000019951E8023FC3EA234341E80232002A72
:10509000F7D10392029300BF04B0704700B585B00A
:1050A00001900091009B19460198FFF7BCFF034651
:1050B000002B07D0019B1B68009A5288134403936E
:1050C000039B00E00023184605B05DF804FB00B523
:1050D00083B001900091009B1A88009B5B889A42E4
:1050E00004D10198FFF7CAFF012300E0002318460E
:1050F00003B05DF804FB10B487B001900091019BF0
:10510000009A53E8004F104643E8000191F0000F69
:10511000F7D1059404900391059B184607B05DF8FC
:10512000044B704710B487B001900091019B009A26
:1051300053E8004FA4EB020043E8000191F0000F98
:10514000F6D1059404900391049B184607B05DF8CE
:10515000044B704700B583B00190019B002B04D134
:10516000054940F24510FFF747FF019B1B681B797B
:10517000184603B05DF804FB049D000000B583B041
:105180000190019B002B04D1074940F25510FFF715
:1051900033FF019B9A68019B1B681B68D31ADBB223
:1051A000184603B05DF804FB049D000082B0019036
:1051B000019B9B68D3F84831C3F34003DBB2002B5B
:1051C00014BF01230023DBB2184602B07047000071
:1051D00000B597B00B900A9109920B98FFF7E6FF84
:1051E0000346002B05D0002200210B9800F0BEFDE5
:1051F00061E00A9B012B05D9304A02210B9800F08F
:1052000089FC58E02E4A2F4BD31A2F4AA2FB0323C6
:105210001B0914930023159349E0159A13465B006C
:105220001344DB001A46274B13441393139B9B8AAA
:105230001293139B9B8A1A46129BD31A1193139BAA
:105240009A68139B5B68D31A10931398FFF782FF39
:1052500003460F931398FFF791FF03460E93139B9A
:105260001B690D930E9B642202FB03F2109BB2FBA1
:10527000F3F30F9A642101FB02F1109AB1FBF2F2F1
:10528000109907910F9906910592109A04920E9A1F
:1052900003920293119B0193129B00930D9B0B4A67
:1052A00008210B9800F036FC159B01331593159AD5
:1052B000149B9A42B1D317B05DF804FB609D0000C7
:1052C0005096000050960000ABAAAAAA749D000058
:1052D00082B00190019B9B68D3F84831C3F340032F
:1052E000DBB2002B14BF01230023DBB2184602B04F
:1052F0007047000000B585B00190019B002B0AD0DB
:10530000074B43F001030393019B9B010293039B13
:105310000298984700E000BF05B05DF804FB00BFAD
:1053200040A5000000B583B00190019B1B691846A1
:1053300001F0F4FA00BF03B05DF804FB82B0019005
:10534000019B9A68B2F8483143F00803A2F848314B
:1053500000BF02B0704782B00190019B9A68B2F81A
:1053600048316FF3C303A2F8483100BF02B0704761
:1053700082B00190019B9B68D3F84831C3F3C0030E
:10538000DBB2184602B0704700B583B00190019BB4
:10539000002B04D0019802F009FE034600E0002330
:1053A000184603B05DF804FB10B588B00390029175
:1053B00001920093039B002B02D0029B002B03D190
:1053C0002D49F420FFF718FE039B5B681B68002B38
:1053D00003D12949F520FFF70FFE002307933EE094
:1053E000039B5B681B68DC68039B5868029A079BF9
:1053F000D11805AB019AA0470690069B002B03D05D
:105400001D49FF20FFF7F8FD059B019A9A4204D23F
:1054100019494FF48070FFF7EFFD059B079A13447D
:105420000793059B019AD31A0193059B002B16D174
:10543000039B9B681B78032B11D000BF039B9B68C9
:10544000D3F84831C3F34013DBB2002BF6D0039BF3
:105450009A68B2F848316FF34513A2F84831019BBE
:10546000002BBDD1009B002B02D0059A009B1A6037
:1054700000BF08B010BD00BFEC9E000000B583B0B7
:1054800001900B468DF80330019B1B699DF80320AA
:105490000349184601F064FA00BF03B05DF804FB4D
:1054A000409F000010B586B00390029101920093D6
:1054B000039B002B02D0029B002B04D10D4940F22C
:1054C0002310FFF799FD039B5B68002B04D109496A
:1054D0004FF49270FFF790FD039B5B681B681C699B
:1054E000039B5868009B019A0299A047059000BF52
:1054F00006B010BDEC9E000000B589B0039002918B
:1055000001920093009B002B04D13B494FF49C7007
:10551000FFF772FD0A9B002B04D1374940F2391086
:10552000FFF76AFD029B002B34D1344A344BD31A67
:10553000DB08019A9A4229D200230693314B059346
:10554000002307931BE0079BDB002D4A13440693BF
:10555000019B9B00059A13441A68069B5B681B68B5
:105560001946104602F0FBFC0346002B04D1069BB3
:105570005A68009B1A603CE0079B013307931F4A5F
:105580001F4BD31ADB08079A9A42DCD3009B0022F8
:105590001A602EE0039B002B03D1009B00221A60AF
:1055A00027E0039B1B78002B10D0039B5B680A99B4
:1055B000019898470A9B1B68002B03D1009B00228F
:1055C0001A6016E0009B0A9A1A6012E0039B5A6860
:1055D000019B1B0113441B68002B07D0039B5A68D7
:1055E000019B1B011A44009B1A6002E0009B0022F1
:1055F0001A6009B05DF804FBEC9E00009096000074
:10560000589600001400002000B583B00190019B63
:105610001B690449184601F0A3F900BF03B05DF807
:1056200004FB00BF489F000000B583B001900B460B
:105630008DF803309DF80330002B07D0019B1B69C8
:105640009DF803200349184601F08AF900BF03B012
:105650005DF804FB4C9F000000B583B001900B4641
:105660008DF803309DF80330002B07D0019B1B6998
:105670009DF803200349184601F072F900BF03B0FA
:105680005DF804FB549F000000B583B001900B4609
:105690008DF803309DF80330002B07D0019B1B6968
:1056A0009DF803200349184601F05AF900BF03B0E2
:1056B0005DF804FB5C9F000000B583B001900B46D1
:1056C0008DF803309DF80330002B07D0019B1B6938
:1056D0009DF803200349184601F042F900BF03B0CA
:1056E0005DF804FB649F000000B587B001900023C3
:1056F000ADF816300023ADF8143000238DF80B30D0
:1057000000238DF81330019B9B68A0338022002179
:10571000184602F0F1FB019B1B697749184601F01E
:105720001FF90198FFF7FEFD0023ADF81030D7E018
:1057300003AB0DF10B0101220198FFF7B3FE039BB0
:10574000002B04D140F2E730FFF7D4FDBFE09DF815
:105750000B301B2B06D0019B9B6893F8A0301B2BB2
:1057600040F0B4809DF80B30522B40F09580019BA7
:105770009A689DF813301344002283F8A020019BFF
:105780009B6893F8A1305B2B06D0019B9B6800229D
:1057900083F8A0200B23AAE002238DF813301CE02D
:1057A000BDF814301A46920013445B009AB2019B74
:1057B00099689DF81330581C8DF813000B4493F82A
:1057C000A0309BB213449BB2303BADF814309DF92E
:1057D0001330002B01DA0C2389E0019B9A689DF8B5
:1057E0001330134493F8A0303B2BD9D19DF81330DC
:1057F00001338DF813309DF91330002B1EDA0C2382
:1058000075E0BDF816301A46920013445B009AB258
:10581000019B99689DF81330581C8DF813000B44B8
:1058200093F8A0309BB213449BB2303BADF81630D6
:105830009DF91330002B01DA0C2358E0019B9A6884
:105840009DF81330134493F8A030002BD9D1BDF844
:105850001630FA2B04D9019B9B68FA221A7505E0D1
:10586000019B9B68BDF81620D2B21A75BDF81430A2
:10587000FA2B04D9019B9B68FA229A7505E0019BDB
:105880009B68BDF81420D2B29A75019B9B680022D8
:1058900083F8A02000232AE0019B9A689DF813302A
:1058A0009DF80B1013440A4683F8A0209DF813308E
:1058B00001338DF813309DF81330092B07D9019B64
:1058C0009B68002283F8A020042310E000BF039B04
:1058D000002B7FF42DAFBDF810300133ADF8103040
:1058E000BDF81030B3F57A7FFFF422AF0D231846D0
:1058F00007B05DF804FB00BF34A5000000B587B019
:10590000039002910192029B002B04D12A4940F29C
:105910004930FFF771FB019B002B04D1264940F26F
:105920004A30FFF769FB0398FFF7DEFE0346002BC2
:1059300018D1039B9B681B7DADF81630039B9B68B9
:105940009B7DADF81430FA210398FFF785FEFA210C
:105950000398FFF7B1FE0398FFF7C6FE0346002B3E
:1059600024D101E0062322E0039B9B681A7D029B61
:105970001A70039B9B689A7D019B1A70029B1A7890
:10598000BDF81630DBB2D31ADBB219460398FFF725
:105990004BFE019B1A78BDF81430DBB2D31ADBB290
:1059A00019460398FFF770FE002300E0062318460F
:1059B00007B05DF804FB00BFEC9E000000B585B0A9
:1059C00001900B468DF803309DF80330002B2ED04C
:1059D000019B9B68DB7E9DF803209A4234D01B23F9
:1059E0008DF808305B238DF8093031238DF80A30AB
:1059F0003B238DF80B3033238DF80C309DF80330AA
:105A00002F33DBB28DF80D306D238DF80E3000236F
:105A10008DF80F30019B9B689DF80320DA76019B7F
:105A20001B6902AA0A49184600F09AFF0DE0019B83
:105A30009B689DF80320DA76019B1B69054A04499F
:105A4000184600F08DFF00E000BF05B05DF804FBD4
:105A5000449F000048A5000000B585B001900B46AA
:105A60008DF803309DF80330002B29D0019B9B68F3
:105A70001B7F9DF803209A4221D01B238DF808300C
:105A80005B238DF8093034238DF80A309DF80330FC
:105A90002F33DBB28DF80B306D238DF80C300023E3
:105AA0008DF80D30019B9B689DF803201A77019BB0
:105AB0001B6902AA0449184600F052FF00E000BF2B
:105AC00005B05DF804FB00BF449F000000B583B043
:105AD00001900091019B9B681B330222194600989C
