:1000000000000420750300005D0300005F03000092
:1000100061030000630300006503000000000000AE
:100020000000000000000000000000006703000066
:1000300069030000000000006B0300006D03000076
:10004000610400006F030000610800006F030000FE
:100050006F0300006F0300006F0300006F030000D8
:100060006F0300006F0300006F0300006F030000C8
:100070006F0300006F0300006F0300006F030000B8
:100080006F030000690900006F0300006F030000A8
:100090006F0300006F0300006F0300006F03000098
:1000A0006F0300006F0300006F0300006F03000088
:1000B0006F0300006F03000000000000000000005C
:1000C0006F0300006F0300006F0300006F03000068
:1000D0006F0300006F0300006F0300006F03000058
:1000E0006F0300006F0300006F03000000000000BA
:1000F000000000006F030000000000006F0300001C
:1001000000000000000000000000000000000000EF
:1001100000000000000000000000000000000000DF
:1001200000000000000000000000000000000000CF
:1001300000000000000000000000000000000000BF
:1001400000000000000000000000000000000000AF
:10015000000000000000000000000000000000009F
:10016000000000000000000000000000000000008F
:10017000000000000000000000000000000000007F
:10018000000000000000000000000000000000006F
:10019000000000000000000000000000000000005F
:1001A000000000000000000000000000000000004F
:1001B000000000000000000000000000000000003F
:1001C000000000000000000000000000000000002F
:1001D000000000000000000000000000000000001F
:1001E000000000000000000000000000000000000F
:1001F00000000000000000000000000000000000FF
:10020000354936480A1A02D0072291438D463449AF
:1002100034480A1A06D00722914381F30988022242
:1002200082F3148830483149314A00F044F83148AB
:100230003149324A00F03FF831483249324A00F041
:100240003AF832483249334A00F035F832483349F7
:10025000334A00F030F833483349344A00F02BF881
:1002600033483449344A00F026F8344834490022EF
:1002700000F02CF833483449002200F027F83348C6
:100280003349091A082902DB002202604160314A21
:1002900090471F481F49884205D00268043003B4C4
:1002A000904703BCF7E700208646EC46002000217B
:1002B000294A9047FEE7884207D0521A05D00378B2
:1002C00001300B700131013AF9D17047884202D0F8
:1002D00002700130FAE770470000042000E00320BC
:1002E00000000420000004205C0E0000000000203C
:1002F00004000020D0030000D0030000A40D000083
:100300005C0E00000000002000000020A40D000092
:10031000A40D0000A40D0000A40D0000A40D000019
:10032000A40D0000A40D0000A40D00005A0E000052
:10033000600E0000040000200400002004000020E3
:1003400060000020600000206000002060000020AD
:10035000602000209D03000079080000FEE7FEE712
:10036000FEE7FEE7FEE7FEE7FEE7FEE7FEE7FEE765
:1003700000F002B8FFF7FCBF0F484FF007018843B9
:1003800085460E4880470E48016841F470010160BF
:10039000BFF34F8FBFF36F8FFFF732BF09480A4992
:1003A0000A4A884207D0521A05D0037801300B70F0
:1003B0000131013AF9D1704700000420ED09000035
:1003C00088ED00E0A40D00000000002000000020E7
:1003D00084B00346ADF80630BDF8063003F1804323
:1003E00000221A60BDF8063003F180431B680393B6
:1003F000039B00BF04B0704782B00346ADF80630DF
:10040000BDF8063003F180431B68002B14BF0123A5
:100410000023DBB2184602B0704700B585B0034632
:10042000ADF80630BDF806301846FFF7E5FF034685
:100430008DF80F309DF80F30002B04D0BDF806303A
:100440001846FFF7C5FF9DF80F30184605B05DF858
:1004500004FB4FF08043D3F8043318467047000084
:1004600000B583B0FFF7F5FF0190019B03F0040393
:10047000002B12D04FF48470FFF7CFFF0346002B00
:100480000BD0464B1B68002B04D145494FF48B70B1
:1004900000F078FA414B1B689847019B03F020035A
:1004A000002B13D04FF48A70FFF7B7FF0346002BE1
:1004B0000CD03C4B1B68002B04D1394940F21F1073
:1004C00000F060FA374B1B6800209847019B03F04F
:1004D0004003002B13D04FF48C70FFF79EFF0346B0
:1004E000002B0CD02F4B1B68002B04D12C494FF450
:1004F000937000F047FA2B4B1B6801209847019B33
:1005000003F08003002B13D04FF48E70FFF785FFAC
:100510000346002B0CD0244B1B68002B04D1204930
:1005200040F22F1000F02EFA1F4B1B680020984756
:10053000019B03F48073002B13D04FF49070FFF7EE
:100540006CFF0346002B0CD0174B1B68002B04D10B
:1005500013494FF49B7000F015FA134B1B680120F0
:100560009847019B03F40073002B13D04FF4927053
:10057000FFF753FF0346002B0CD00B4B1B68002BDF
:1005800004D1074940F23D1000F0FCF9064B1B680E
:100590000220984700BF03B05DF804FB0400002070
:1005A000040E0000080000200C00002084B0019020
:1005B0000B46ADF80230BDF80230019A1344002218
:1005C0001A60BDF80230019A13441B680393039B21
:1005D00000BF04B0704782B001900B46ADF8023006
:1005E000BDF80230019A13441B68002B14BF01238D
:1005F0000023DBB2184602B0704782B00190009130
:10060000019BD3F80022009BDB431A40019BC3F8F7
:10061000002200BF02B0704784B00190019BD3F864
:1006200080340393019B039AC3F88024039B1846EC
:1006300004B0704782B001900B468DF803309DF8EE
:100640000330019A134401221A6000BF02B07047C0
:1006500082B00190019BD3F84C35184602B0704728
:1006600082B00190019BD3F83C35184602B0704728
:1006700000B589B003900291019201238DF81030EA
:10068000029B0693019B0593039B5B68039A116889
:1006900004AA1046984700BF09B05DF804FB00B5F6
:1006A00087B00190009100238DF80830009B0493DF
:1006B000019B9B680393019B00225A61019B5B682D
:1006C000019A116802AA1046984700BF07B05DF86A
:1006D00004FB00B589B0019000914FF4927101982C
:1006E000FFF779FF0346002B22D04FF49271019857
:1006F000FFF75CFF02238DF808300198FFF78CFFAD
:10070000034605930198FFF7ABFF03460493009B54
:10071000DB680393009B00229A61009B0022DA6150
:10072000009B5B68009A116802AA104698473BE05C
:100730004FF488710198FFF74EFF0346002B33D02A
:100740004FF488710198FFF731FF0198FFF788FF98
:100750000790009B9B69079A9A4225D1009BDB6911
:10076000002B17D0009BDB68069320210198FFF730
:1007700044FF009BDA69009B9A61009B1A69009B09
:10078000DA60009B0022DA61069A07990098FFF769
:100790006FFF09E0009B00229A61009BDB681A460C
:1007A00007990098FFF764FF4FF4A2710198FFF7D3
:1007B00012FF0346002B18D04FF4A2710198FFF7E7
:1007C000F5FE009B9B69002B0FD0009B00229A61D5
:1007D000009B0022DA610198FFF742FF0146009B6F
:1007E000DB681A460098FFF743FF4FF490710198B9
:1007F000FFF7F1FE0346002B14D04FF490710198DF
:10080000FFF7D4FE0C210198FFF714FF009B5B69F2
:10081000002B07D00198FFF71BFF034619460098ED
:10082000FFF73DFF4FF4AC710198FFF7D4FE03468C
:10083000002B10D04FF4AC710198FFF7B7FE009B6E
:100840005B69002B07D00198FFF702FF03461946AA
:100850000098FFF724FF00BF09B05DF804FB00001B
:1008600008B503490348FFF734FF00BF08BD00BFC8
:100870001000002000200040FEE7000086B003903A
:100880000291019201238DF817309DF81730204A0C
:10089000039B13601E4A029B53601D4A019B936099
:1008A000039B44F20102934213D0039B44F20202E1
:1008B000934221D1019B164AD360154BDB681B88FC
:1008C0001A46134B9A61124BDB685B68104AD3617E
:1008D00012E0019B0E4A13610D4B1B699B680C4A89
:1008E00053610B4B1B691B68094A9361084B1B69D9
:1008F0005B68074AD36100BF72B600BF9DF817302E
:10090000DBB2002BFAD162B600BF06B0704700BF61
:100910003400002000B587B003900291019272B6B6
:10092000039B44F20102934207D0039B44F202026C
:10093000934205D1019B059303E0019B049300E0E2
:1009400000BF084B1B6803F00103002B00D000BE62
:10095000019A02990398FFF791FF00BF07B05DF875
:1009600004FB00BFF0ED00E008B5044B1B68044A2F
:1009700012681046984700BF08BD00BF5400002011
:100980005800002000B585B003460091ADF8063050
:10099000BDF80630ADF80830009B039302AB1A4651
:1009A000002144F20200FFF7B5FF00BF05B05DF87B
:1009B00004FB0000BFF34F8F054BDB6803F4E062DC
:1009C0000349044B1343CB60BFF34F8F00BFFDE7D8
:1009D00000ED00E00400FA05024B034A1A6000BF74
:1009E000704700BF000000200090D00308B500F061
:1009F00025F90346002B0ED04FF080430022C3F8A8
:100A00000C214FF080430022C3F810214FF08043A7
:100A10000022C3F8382500F035F90346002B76D0C4
:100A20004FF080537C4AD3F80434C2F820354FF09D
:100A30008053794AD3F80834C2F824354FF08053F4
:100A4000754AD3F80C34C2F828354FF08053724AF7
:100A5000D3F81034C2F82C354FF080536E4AD3F8D7
:100A60001434C2F830354FF080536B4AD3F8183441
:100A7000C2F834354FF08053674AD3F81C34C2F8BB
:100A800040354FF08053644AD3F82034C2F84435DF
:100A90004FF08053604AD3F82434C2F848354FF001
:100AA00080535D4AD3F82834C2F84C354FF0805358
:100AB000594AD3F82C34C2F850354FF08053564A77
:100AC000D3F83034C2F854354FF08053524AD3F83B
:100AD0003434C2F860354FF080534F4AD3F838347D
:100AE000C2F864354FF080534B4AD3F83C34C2F817
:100AF00068354FF08053484AD3F84034C2F86C351B
:100B00004FF08053444AD3F84434C2F8703500F0B3
:100B1000DDF80346002B02D0404B414A1A6000F03A
:100B2000E7F80346002B03D03E4BFB22C3F8182501
:100B300000F0F0F80346002B0AD03B4B1B6823F073
:100B40000F023A4B1B6803F00F03374913430B6046
:100B500000F0F2F80346002B03D0354B4FF400723F
:100B60001A6000F0FBF80346002B0DD04FF08043D5
:100B7000D3F8003403F00103002B05D04FF080437D
:100B80006FF00102C3F800242A4BD3F88830294AB9
:100B900043F47003C2F88830BFF34F8FBFF36F8FF9
:100BA0004FF01023D3F80032002B05DB4FF0102359
:100BB000D3F80432002B2BDA1F4B0122C3F8042593
:100BC00000BF1D4BD3F80034002BFAD04FF0102398
:100BD0001222C3F8002200BF174BD3F80034002BB9
:100BE000FAD04FF010231222C3F8042200BF124B98
:100BF000D3F80034002BFAD00F4B0022C3F80425A1
:100C000000BF0D4BD3F80034002BFAD0FFF7D2FE13
:100C1000FFF7E2FE00BF08BD00C000408C56004058
:100C20004881030000F00040E40E0040580200102C
:100C30004096024000ED00E000E001400F4B1B68D1
:100C4000082B17D10E4B1B68002B01D1012312E09A
:100C50000B4B1B68012B01D101230CE0084B1B68D7
:100C6000022B01D1012306E0054B1B68032B01D1A8
:100C7000012300E001231846704700BF3001001037
:100C8000340100100F4B1B68082B17D10E4B1B684B
:100C9000002B01D1012312E00B4B1B68012B01D16A
:100CA00001230CE0084B1B68022B01D1012306E055
:100CB000054B1B68032B01D1012300E001231846DB
:100CC000704700BF3001001034010010064B1B6854
:100CD000082B05D1054B1B68002B01D1012300E037
:100CE00000231846704700BF300100103401001087
:100CF000064B1B68082B05D1054B1B68002B01D147
:100D0000012300E000231846704700BF30010010A7
:100D100034010010064B1B68082B05D1054B1B68DE
:100D2000002B01D1012300E000231846704700BFCB
:100D30003001001034010010064B1B68082B05D150
:100D4000054B1B68002B01D1012300E0002318464E
:100D5000704700BF30010010340100100F4B1B68BA
:100D6000082B17D10E4B1B68002B01D1012312E079
:100D70000B4B1B68012B01D101230CE0084B1B68B6
:100D8000022B01D1012306E0054B1B68032B01D187
:100D9000012300E001231846704700BF3001001016
:040DA000340100100A
:100DA4002E2E2F2E2E2F2E2E2F2E2E2F2E2E2F2E5A
:100DB4002E2F696E746567726174696F6E2F6E721F
:100DC40066782F6E7266785F676C75652E680000B2
:100DD4002E2E2F2E2E2F2E2E2F2E2E2F2E2E2F2E2A
:100DE4002E2F6D6F64756C65732F6E7266782F6825
:100DF400616C2F6E72665F706F7765722E6800008B
:100E04002F686F6D652F6D696B652F50726F6A6502
:100E14006374732F6E52462F6E5246355F53444BA4
:100E24005F31362E302E305F393861303865322FDD
:100E34006D6F64756C65732F6E7266782F6472695A
:100E4400766572732F7372632F6E7266785F706F3C
:060E54007765722E6300B9
:040E5C000090D0032F
:040000030000037581
:00000001FF
